{
  "_format": "hh-sol-artifact-1",
  "contractName": "SimpleStorage",
  "sourceName": "contracts/SimpleStorage.sol",
  "abi": [
    {
      "inputs": [
        {
          "internalType": "uint8",
          "name": "v",
          "type": "uint8"
        },
        {
          "internalType": "bytes32",
          "name": "r",
          "type": "bytes32"
        },
        {
          "internalType": "bytes32",
          "name": "s",
          "type": "bytes32"
        },
        {
          "internalType": "address",
          "name": "sender",
          "type": "address"
        },
        {
          "internalType": "uint256",
          "name": "deadline",
          "type": "uint256"
        },
        {
          "internalType": "uint256",
          "name": "x",
          "type": "uint256"
        }
      ],
      "name": "executeSetIfSignatureMatch",
      "outputs": [],
      "stateMutability": "nonpayable",
      "type": "function"
    },
    {
      "inputs": [],
      "name": "get",
      "outputs": [
        {
          "internalType": "uint256",
          "name": "",
          "type": "uint256"
        }
      ],
      "stateMutability": "view",
      "type": "function"
    }
  ],
  "bytecode": "0x608060405234801561001057600080fd5b50610859806100206000396000f3fe608060405234801561001057600080fd5b50600436106100365760003560e01c8063314eb9031461003b5780636d4ce63c14610057575b600080fd5b610055600480360381019061005091906103b3565b610075565b005b61005f61034c565b60405161006c919061068f565b60405180910390f35b8142106100b7576040517f08c379a00000000000000000000000000000000000000000000000000000000081526004016100ae9061066f565b60405180910390fd5b600046905060007f8b73c3c69bb8fe3d512ecc4cf759cc79239f7b179b0ffacaa9a75d522b39400f6040518060400160405280600781526020017f5365745465737400000000000000000000000000000000000000000000000000815250805190602001206040518060400160405280600181526020017f310000000000000000000000000000000000000000000000000000000000000081525080519060200120843060405160200161016f959493929190610597565b60405160208183030381529060405280519060200120905060007f94cad2359ed2e2f8c0a4743f10ef1ce5153ec32fdb472bc63d96d12da92f839b8685876040516020016101c09493929190610552565b604051602081830303815290604052805190602001209050600082826040516020016101ed92919061051b565b60405160208183030381529060405280519060200120905060006001828c8c8c6040516000815260200160405260405161022a94939291906105ea565b6020604051602081039080840390855afa15801561024c573d6000803e3d6000fd5b5050506020604051035190508773ffffffffffffffffffffffffffffffffffffffff168173ffffffffffffffffffffffffffffffffffffffff16146102c6576040517f08c379a00000000000000000000000000000000000000000000000000000000081526004016102bd9061064f565b60405180910390fd5b600073ffffffffffffffffffffffffffffffffffffffff168173ffffffffffffffffffffffffffffffffffffffff161415610336576040517f08c379a000000000000000000000000000000000000000000000000000000000815260040161032d9061062f565b60405180910390fd5b61033f86610355565b5050505050505050505050565b60008054905090565b8060008190555050565b60008135905061036e816107c7565b92915050565b600081359050610383816107de565b92915050565b600081359050610398816107f5565b92915050565b6000813590506103ad8161080c565b92915050565b60008060008060008060c087890312156103cc57600080fd5b60006103da89828a0161039e565b96505060206103eb89828a01610374565b95505060406103fc89828a01610374565b945050606061040d89828a0161035f565b935050608061041e89828a01610389565b92505060a061042f89828a01610389565b9150509295509295509295565b610445816106c6565b82525050565b610454816106d8565b82525050565b61046b610466826106d8565b610719565b82525050565b600061047e6018836106aa565b915061048982610723565b602082019050919050565b60006104a16002836106bb565b91506104ac8261074c565b600282019050919050565b60006104c4601d836106aa565b91506104cf82610775565b602082019050919050565b60006104e7601a836106aa565b91506104f28261079e565b602082019050919050565b61050681610702565b82525050565b6105158161070c565b82525050565b600061052682610494565b9150610532828561045a565b602082019150610542828461045a565b6020820191508190509392505050565b6000608082019050610567600083018761044b565b610574602083018661043c565b61058160408301856104fd565b61058e60608301846104fd565b95945050505050565b600060a0820190506105ac600083018861044b565b6105b9602083018761044b565b6105c6604083018661044b565b6105d360608301856104fd565b6105e0608083018461043c565b9695505050505050565b60006080820190506105ff600083018761044b565b61060c602083018661050c565b610619604083018561044b565b610626606083018461044b565b95945050505050565b6000602082019050818103600083015261064881610471565b9050919050565b60006020820190508181036000830152610668816104b7565b9050919050565b60006020820190508181036000830152610688816104da565b9050919050565b60006020820190506106a460008301846104fd565b92915050565b600082825260208201905092915050565b600081905092915050565b60006106d1826106e2565b9050919050565b6000819050919050565b600073ffffffffffffffffffffffffffffffffffffffff82169050919050565b6000819050919050565b600060ff82169050919050565b6000819050919050565b7f45434453413a20696e76616c6964207369676e61747572650000000000000000600082015250565b7f1901000000000000000000000000000000000000000000000000000000000000600082015250565b7f4d7946756e6374696f6e3a20696e76616c6964207369676e6174757265000000600082015250565b7f5369676e6564207472616e73616374696f6e2065787069726564000000000000600082015250565b6107d0816106c6565b81146107db57600080fd5b50565b6107e7816106d8565b81146107f257600080fd5b50565b6107fe81610702565b811461080957600080fd5b50565b6108158161070c565b811461082057600080fd5b5056fea2646970667358221220aa16ffcb73dc6318f5e7990dbcbe47245e3412b2eeac3eaf25c484d537403d0564736f6c63430008040033",
  "linkReferences": {},
  "deployedLinkReferences": {}
}