{
  "_format": "hh-sol-artifact-1",
  "contractName": "DCertify",
  "sourceName": "contracts/Greeter.sol",
  "abi": [
    {
      "inputs": [
        {
          "internalType": "string",
          "name": "_document",
          "type": "string"
        },
        {
          "internalType": "address",
          "name": "_owner",
          "type": "address"
        },
        {
          "internalType": "string",
          "name": "_signature",
          "type": "string"
        },
        {
          "internalType": "string",
          "name": "isVerified",
          "type": "string"
        }
      ],
      "name": "addDocument",
      "outputs": [],
      "stateMutability": "nonpayable",
      "type": "function"
    },
    {
      "inputs": [],
      "name": "getAllCertificates",
      "outputs": [
        {
          "components": [
            {
              "internalType": "string",
              "name": "document",
              "type": "string"
            },
            {
              "internalType": "address",
              "name": "owner",
              "type": "address"
            },
            {
              "internalType": "uint256",
              "name": "timestamp",
              "type": "uint256"
            },
            {
              "internalType": "string",
              "name": "signature",
              "type": "string"
            }
          ],
          "internalType": "struct DCertify.VerifiedDocument[]",
          "name": "",
          "type": "tuple[]"
        }
      ],
      "stateMutability": "view",
      "type": "function"
    },
    {
      "inputs": [
        {
          "internalType": "address",
          "name": "_owner",
          "type": "address"
        },
        {
          "internalType": "uint256",
          "name": "_index",
          "type": "uint256"
        }
      ],
      "name": "getDocumentByIndex",
      "outputs": [
        {
          "internalType": "string",
          "name": "",
          "type": "string"
        }
      ],
      "stateMutability": "view",
      "type": "function"
    },
    {
      "inputs": [
        {
          "internalType": "address",
          "name": "_owner",
          "type": "address"
        }
      ],
      "name": "getNumberOfDocuments",
      "outputs": [
        {
          "internalType": "uint256",
          "name": "",
          "type": "uint256"
        }
      ],
      "stateMutability": "view",
      "type": "function"
    },
    {
      "inputs": [
        {
          "internalType": "string",
          "name": "message",
          "type": "string"
        }
      ],
      "name": "hashMessage",
      "outputs": [
        {
          "internalType": "bytes32",
          "name": "",
          "type": "bytes32"
        }
      ],
      "stateMutability": "pure",
      "type": "function"
    },
    {
      "inputs": [
        {
          "internalType": "address",
          "name": "_address",
          "type": "address"
        }
      ],
      "name": "login",
      "outputs": [
        {
          "internalType": "string",
          "name": "",
          "type": "string"
        }
      ],
      "stateMutability": "view",
      "type": "function"
    },
    {
      "inputs": [
        {
          "internalType": "address",
          "name": "_address",
          "type": "address"
        },
        {
          "internalType": "string",
          "name": "_name",
          "type": "string"
        },
        {
          "internalType": "string",
          "name": "isVerified",
          "type": "string"
        }
      ],
      "name": "register",
      "outputs": [],
      "stateMutability": "nonpayable",
      "type": "function"
    },
    {
      "inputs": [
        {
          "internalType": "string",
          "name": "source",
          "type": "string"
        }
      ],
      "name": "stringToBytes32",
      "outputs": [
        {
          "internalType": "bytes32",
          "name": "result",
          "type": "bytes32"
        }
      ],
      "stateMutability": "pure",
      "type": "function"
    }
  ],
  "bytecode": "0x608060405234801561001057600080fd5b50611223806100206000396000f3fe608060405234801561001057600080fd5b50600436106100885760003560e01c8063b24762b21161005b578063b24762b214610113578063c85cbe5014610143578063cfb5192814610173578063e3046c81146101a357610088565b8063019e7b321461008d57806313fcfe80146100a957806335a6861a146100c75780638d59cc02146100f7575b600080fd5b6100a760048036038101906100a29190610bc4565b6101d3565b005b6100b1610392565b6040516100be9190610ee5565b60405180910390f35b6100e160048036038101906100dc9190610a9f565b6105b1565b6040516100ee9190610f22565b60405180910390f35b610111600480360381019061010c9190610ac8565b610685565b005b61012d60048036038101906101289190610a9f565b61076f565b60405161013a9190610f44565b60405180910390f35b61015d60048036038101906101589190610b47565b6107ba565b60405161016a9190610f22565b60405180910390f35b61018d60048036038101906101889190610b83565b6108d4565b60405161019a9190610f07565b60405180910390f35b6101bd60048036038101906101b89190610b83565b6108fe565b6040516101ca9190610f07565b60405180910390f35b8273ffffffffffffffffffffffffffffffffffffffff163373ffffffffffffffffffffffffffffffffffffffff161461020b57600080fd5b60405160200161021a90610ed0565b60405160208183030381529060405280519060200120816040516020016102419190610eb9565b604051602081830303815290604052805190602001201461026157600080fd5b6000803373ffffffffffffffffffffffffffffffffffffffff1673ffffffffffffffffffffffffffffffffffffffff16815260200190815260200160002060405180608001604052808681526020018573ffffffffffffffffffffffffffffffffffffffff168152602001428152602001848152509080600181540180825580915050600190039060005260206000209060040201600090919091909150600082015181600001908051906020019061031b92919061096a565b5060208201518160010160006101000a81548173ffffffffffffffffffffffffffffffffffffffff021916908373ffffffffffffffffffffffffffffffffffffffff16021790555060408201518160020155606082015181600301908051906020019061038992919061096a565b50505050505050565b60606000803373ffffffffffffffffffffffffffffffffffffffff1673ffffffffffffffffffffffffffffffffffffffff168152602001908152602001600020805480602002602001604051908101604052809291908181526020016000905b828210156105a85783829060005260206000209060040201604051806080016040529081600082018054610425906110c4565b80601f0160208091040260200160405190810160405280929190818152602001828054610451906110c4565b801561049e5780601f106104735761010080835404028352916020019161049e565b820191906000526020600020905b81548152906001019060200180831161048157829003601f168201915b505050505081526020016001820160009054906101000a900473ffffffffffffffffffffffffffffffffffffffff1673ffffffffffffffffffffffffffffffffffffffff1673ffffffffffffffffffffffffffffffffffffffff16815260200160028201548152602001600382018054610517906110c4565b80601f0160208091040260200160405190810160405280929190818152602001828054610543906110c4565b80156105905780601f1061056557610100808354040283529160200191610590565b820191906000526020600020905b81548152906001019060200180831161057357829003601f168201915b505050505081525050815260200190600101906103f2565b50505050905090565b6060600160008373ffffffffffffffffffffffffffffffffffffffff1673ffffffffffffffffffffffffffffffffffffffff1681526020019081526020016000206000018054610600906110c4565b80601f016020809104026020016040519081016040528092919081815260200182805461062c906110c4565b80156106795780601f1061064e57610100808354040283529160200191610679565b820191906000526020600020905b81548152906001019060200180831161065c57829003601f168201915b50505050509050919050565b8273ffffffffffffffffffffffffffffffffffffffff163373ffffffffffffffffffffffffffffffffffffffff16146106bd57600080fd5b6040516020016106cc90610ed0565b60405160208183030381529060405280519060200120816040516020016106f39190610eb9565b604051602081830303815290604052805190602001201461071357600080fd5b81600160008573ffffffffffffffffffffffffffffffffffffffff1673ffffffffffffffffffffffffffffffffffffffff168152602001908152602001600020600001908051906020019061076992919061096a565b50505050565b60008060008373ffffffffffffffffffffffffffffffffffffffff1673ffffffffffffffffffffffffffffffffffffffff168152602001908152602001600020805490509050919050565b60606000808473ffffffffffffffffffffffffffffffffffffffff1673ffffffffffffffffffffffffffffffffffffffff1681526020019081526020016000208281548110610832577f4e487b7100000000000000000000000000000000000000000000000000000000600052603260045260246000fd5b9060005260206000209060040201600001805461084e906110c4565b80601f016020809104026020016040519081016040528092919081815260200182805461087a906110c4565b80156108c75780601f1061089c576101008083540402835291602001916108c7565b820191906000526020600020905b8154815290600101906020018083116108aa57829003601f168201915b5050505050905092915050565b6000808290506000815114156108f0576000801b9150506108f9565b60208301519150505b919050565b6000806040518060400160405280601c81526020017f19457468657265756d205369676e6564204d6573736167653a0a3332000000008152509050808360405160200161094c929190610e95565b60405160208183030381529060405280519060200120915050919050565b828054610976906110c4565b90600052602060002090601f01602090048101928261099857600085556109df565b82601f106109b157805160ff19168380011785556109df565b828001600101855582156109df579182015b828111156109de5782518255916020019190600101906109c3565b5b5090506109ec91906109f0565b5090565b5b80821115610a095760008160009055506001016109f1565b5090565b6000610a20610a1b84610f84565b610f5f565b905082815260208101848484011115610a3857600080fd5b610a43848285611082565b509392505050565b600081359050610a5a816111bf565b92915050565b600082601f830112610a7157600080fd5b8135610a81848260208601610a0d565b91505092915050565b600081359050610a99816111d6565b92915050565b600060208284031215610ab157600080fd5b6000610abf84828501610a4b565b91505092915050565b600080600060608486031215610add57600080fd5b6000610aeb86828701610a4b565b935050602084013567ffffffffffffffff811115610b0857600080fd5b610b1486828701610a60565b925050604084013567ffffffffffffffff811115610b3157600080fd5b610b3d86828701610a60565b9150509250925092565b60008060408385031215610b5a57600080fd5b6000610b6885828601610a4b565b9250506020610b7985828601610a8a565b9150509250929050565b600060208284031215610b9557600080fd5b600082013567ffffffffffffffff811115610baf57600080fd5b610bbb84828501610a60565b91505092915050565b60008060008060808587031215610bda57600080fd5b600085013567ffffffffffffffff811115610bf457600080fd5b610c0087828801610a60565b9450506020610c1187828801610a4b565b935050604085013567ffffffffffffffff811115610c2e57600080fd5b610c3a87828801610a60565b925050606085013567ffffffffffffffff811115610c5757600080fd5b610c6387828801610a60565b91505092959194509250565b6000610c7b8383610e0d565b905092915050565b610c8c8161103c565b82525050565b6000610c9d82610fc5565b610ca78185610ff3565b935083602082028501610cb985610fb5565b8060005b85811015610cf55784840389528151610cd68582610c6f565b9450610ce183610fe6565b925060208a01995050600181019050610cbd565b50829750879550505050505092915050565b610d108161104e565b82525050565b6000610d2182610fd0565b610d2b8185611004565b9350610d3b818560208601611091565b80840191505092915050565b6000610d5282610fdb565b610d5c818561100f565b9350610d6c818560208601611091565b610d7581611185565b840191505092915050565b6000610d8b82610fdb565b610d958185611020565b9350610da5818560208601611091565b610dae81611185565b840191505092915050565b6000610dc482610fdb565b610dce8185611031565b9350610dde818560208601611091565b80840191505092915050565b6000610df7600483611031565b9150610e0282611196565b600482019050919050565b60006080830160008301518482036000860152610e2a8282610d47565b9150506020830151610e3f6020860182610c83565b506040830151610e526040860182610e77565b5060608301518482036060860152610e6a8282610d47565b9150508091505092915050565b610e8081611078565b82525050565b610e8f81611078565b82525050565b6000610ea18285610d16565b9150610ead8284610db9565b91508190509392505050565b6000610ec58284610db9565b915081905092915050565b6000610edb82610dea565b9150819050919050565b60006020820190508181036000830152610eff8184610c92565b905092915050565b6000602082019050610f1c6000830184610d07565b92915050565b60006020820190508181036000830152610f3c8184610d80565b905092915050565b6000602082019050610f596000830184610e86565b92915050565b6000610f69610f7a565b9050610f7582826110f6565b919050565b6000604051905090565b600067ffffffffffffffff821115610f9f57610f9e611156565b5b610fa882611185565b9050602081019050919050565b6000819050602082019050919050565b600081519050919050565b600081519050919050565b600081519050919050565b6000602082019050919050565b600082825260208201905092915050565b600081905092915050565b600082825260208201905092915050565b600082825260208201905092915050565b600081905092915050565b600061104782611058565b9050919050565b6000819050919050565b600073ffffffffffffffffffffffffffffffffffffffff82169050919050565b6000819050919050565b82818337600083830152505050565b60005b838110156110af578082015181840152602081019050611094565b838111156110be576000848401525b50505050565b600060028204905060018216806110dc57607f821691505b602082108114156110f0576110ef611127565b5b50919050565b6110ff82611185565b810181811067ffffffffffffffff8211171561111e5761111d611156565b5b80604052505050565b7f4e487b7100000000000000000000000000000000000000000000000000000000600052602260045260246000fd5b7f4e487b7100000000000000000000000000000000000000000000000000000000600052604160045260246000fd5b6000601f19601f8301169050919050565b7f5472756500000000000000000000000000000000000000000000000000000000600082015250565b6111c88161103c565b81146111d357600080fd5b50565b6111df81611078565b81146111ea57600080fd5b5056fea2646970667358221220e261e0e6afc83e979a159b4dba4bdfe0819d912ce0c8b02c1892ff59dfa418fb64736f6c63430008040033",
  "linkReferences": {},
  "deployedLinkReferences": {}
}