{
  "_format": "hh-sol-artifact-1",
  "contractName": "DataVault",
  "sourceName": "contracts/finalVault.sol",
  "abi": [
    {
      "inputs": [],
      "stateMutability": "nonpayable",
      "type": "constructor"
    },
    {
      "inputs": [
        {
          "internalType": "uint256",
          "name": "id",
          "type": "uint256"
        },
        {
          "internalType": "address",
          "name": "newadminAddress",
          "type": "address"
        }
      ],
      "name": "AddAgencyAdmin",
      "outputs": [],
      "stateMutability": "nonpayable",
      "type": "function"
    },
    {
      "inputs": [
        {
          "internalType": "uint256",
          "name": "id",
          "type": "uint256"
        },
        {
          "internalType": "bool",
          "name": "status",
          "type": "bool"
        }
      ],
      "name": "ApproveAgency",
      "outputs": [
        {
          "internalType": "bool",
          "name": "",
          "type": "bool"
        }
      ],
      "stateMutability": "nonpayable",
      "type": "function"
    },
    {
      "inputs": [
        {
          "internalType": "address",
          "name": "AadharHolderWalletAddress",
          "type": "address"
        }
      ],
      "name": "CheckPermissionAccess",
      "outputs": [
        {
          "internalType": "uint256[][]",
          "name": "",
          "type": "uint256[][]"
        }
      ],
      "stateMutability": "view",
      "type": "function"
    },
    {
      "inputs": [
        {
          "internalType": "uint256",
          "name": "id",
          "type": "uint256"
        },
        {
          "internalType": "address",
          "name": "RegAadhaarAddress",
          "type": "address"
        }
      ],
      "name": "MarkAdminAbsent",
      "outputs": [],
      "stateMutability": "nonpayable",
      "type": "function"
    },
    {
      "inputs": [
        {
          "internalType": "uint256",
          "name": "id",
          "type": "uint256"
        },
        {
          "internalType": "address",
          "name": "RegAadhaarAddress",
          "type": "address"
        }
      ],
      "name": "MarkAdminPresent",
      "outputs": [],
      "stateMutability": "nonpayable",
      "type": "function"
    },
    {
      "inputs": [
        {
          "internalType": "uint256",
          "name": "id",
          "type": "uint256"
        },
        {
          "internalType": "address",
          "name": "RegAadhaarAddress",
          "type": "address"
        }
      ],
      "name": "MarkRegAadhaarAbsent",
      "outputs": [],
      "stateMutability": "nonpayable",
      "type": "function"
    },
    {
      "inputs": [
        {
          "internalType": "uint256",
          "name": "id",
          "type": "uint256"
        },
        {
          "internalType": "address",
          "name": "RegAadhaarAddress",
          "type": "address"
        }
      ],
      "name": "MarkRegAadhaarPresent",
      "outputs": [],
      "stateMutability": "nonpayable",
      "type": "function"
    },
    {
      "inputs": [
        {
          "internalType": "uint256",
          "name": "id",
          "type": "uint256"
        },
        {
          "internalType": "address",
          "name": "AadharHolderWalletAddress",
          "type": "address"
        }
      ],
      "name": "RegisterAadhaarInAgency",
      "outputs": [],
      "stateMutability": "nonpayable",
      "type": "function"
    },
    {
      "inputs": [
        {
          "internalType": "string",
          "name": "name",
          "type": "string"
        },
        {
          "internalType": "uint256",
          "name": "govtId",
          "type": "uint256"
        },
        {
          "internalType": "uint256[]",
          "name": "permission",
          "type": "uint256[]"
        }
      ],
      "name": "RegisterAgency",
      "outputs": [
        {
          "internalType": "uint256",
          "name": "",
          "type": "uint256"
        }
      ],
      "stateMutability": "nonpayable",
      "type": "function"
    },
    {
      "inputs": [
        {
          "internalType": "string",
          "name": "name",
          "type": "string"
        },
        {
          "internalType": "string",
          "name": "AadharSig",
          "type": "string"
        },
        {
          "internalType": "string",
          "name": "phoneNumber",
          "type": "string"
        },
        {
          "internalType": "string",
          "name": "residancyAddress",
          "type": "string"
        }
      ],
      "name": "RegisterNewAadhaarHolder",
      "outputs": [],
      "stateMutability": "nonpayable",
      "type": "function"
    },
    {
      "inputs": [],
      "name": "_UIDAI",
      "outputs": [
        {
          "internalType": "address",
          "name": "",
          "type": "address"
        }
      ],
      "stateMutability": "view",
      "type": "function"
    },
    {
      "inputs": [
        {
          "internalType": "uint256",
          "name": "id",
          "type": "uint256"
        },
        {
          "internalType": "address",
          "name": "AadharHolderWalletAddress",
          "type": "address"
        }
      ],
      "name": "getAadharHolderData",
      "outputs": [
        {
          "components": [
            {
              "internalType": "address",
              "name": "ssi_address",
              "type": "address"
            },
            {
              "internalType": "string",
              "name": "AadhaarHolderName",
              "type": "string"
            },
            {
              "internalType": "string",
              "name": "AadhaarSignature",
              "type": "string"
            },
            {
              "internalType": "uint256[]",
              "name": "subscribedAgencies",
              "type": "uint256[]"
            },
            {
              "internalType": "string",
              "name": "phoneNumber",
              "type": "string"
            },
            {
              "internalType": "string",
              "name": "residancyAddress",
              "type": "string"
            }
          ],
          "internalType": "struct AadhaarHolder",
          "name": "",
          "type": "tuple"
        }
      ],
      "stateMutability": "view",
      "type": "function"
    },
    {
      "inputs": [],
      "name": "getAllAgencyData",
      "outputs": [
        {
          "internalType": "uint256[]",
          "name": "",
          "type": "uint256[]"
        },
        {
          "internalType": "string[]",
          "name": "",
          "type": "string[]"
        },
        {
          "internalType": "bool[]",
          "name": "",
          "type": "bool[]"
        },
        {
          "internalType": "uint256[][]",
          "name": "",
          "type": "uint256[][]"
        },
        {
          "internalType": "address[][]",
          "name": "",
          "type": "address[][]"
        },
        {
          "components": [
            {
              "internalType": "address",
              "name": "ssi_address",
              "type": "address"
            },
            {
              "internalType": "string",
              "name": "AadhaarHolderName",
              "type": "string"
            },
            {
              "internalType": "string",
              "name": "AadhaarSignature",
              "type": "string"
            },
            {
              "internalType": "uint256[]",
              "name": "subscribedAgencies",
              "type": "uint256[]"
            },
            {
              "internalType": "string",
              "name": "phoneNumber",
              "type": "string"
            },
            {
              "internalType": "string",
              "name": "residancyAddress",
              "type": "string"
            }
          ],
          "internalType": "struct AadhaarHolder[][]",
          "name": "",
          "type": "tuple[][]"
        }
      ],
      "stateMutability": "view",
      "type": "function"
    },
    {
      "inputs": [],
      "name": "getAllAgencyRegAadhaarCount",
      "outputs": [
        {
          "internalType": "uint256[]",
          "name": "",
          "type": "uint256[]"
        }
      ],
      "stateMutability": "view",
      "type": "function"
    },
    {
      "inputs": [
        {
          "internalType": "address",
          "name": "AadharHolderWalletAddress",
          "type": "address"
        }
      ],
      "name": "getMyAadharData",
      "outputs": [
        {
          "components": [
            {
              "internalType": "address",
              "name": "ssi_address",
              "type": "address"
            },
            {
              "internalType": "string",
              "name": "AadhaarHolderName",
              "type": "string"
            },
            {
              "internalType": "string",
              "name": "AadhaarSignature",
              "type": "string"
            },
            {
              "internalType": "uint256[]",
              "name": "subscribedAgencies",
              "type": "uint256[]"
            },
            {
              "internalType": "string",
              "name": "phoneNumber",
              "type": "string"
            },
            {
              "internalType": "string",
              "name": "residancyAddress",
              "type": "string"
            }
          ],
          "internalType": "struct AadhaarHolder",
          "name": "",
          "type": "tuple"
        }
      ],
      "stateMutability": "view",
      "type": "function"
    },
    {
      "inputs": [],
      "name": "giveAadhaar",
      "outputs": [
        {
          "internalType": "string[]",
          "name": "",
          "type": "string[]"
        }
      ],
      "stateMutability": "view",
      "type": "function"
    }
  ],
  "bytecode": "0x608060405234801561001057600080fd5b506000600181905580546001600160a01b03191633179055612597806100376000396000f3fe608060405234801561001057600080fd5b50600436106101005760003560e01c80638b3b4f9911610097578063be6603b811610066578063be6603b81461012d578063cebbadd81461023d578063e09802d11461025e578063fb1a98ff1461027157600080fd5b80638b3b4f99146101ca5780638e8e818f146101ea57806393b9eba11461021557806395aafa3d1461022857600080fd5b80635dd7e60b116100d35780635dd7e60b1461016857806368c8c6a4146101825780636ee25743146101a2578063705510bc146101b757600080fd5b8063048e679414610105578063049a526f1461011a57806322d76edc1461012d578063305fdc2a14610140575b600080fd5b610118610113366004611d7b565b610284565b005b610118610128366004611e5e565b6103b5565b61011861013b366004611d7b565b610545565b61015361014e366004611f0b565b6105f6565b60405190151581526020015b60405180910390f35b61017061068c565b60405161015f96959493929190612228565b610195610190366004611d7b565b610b12565b60405161015f91906122d0565b6101aa610f14565b60405161015f91906122e3565b6101186101c5366004611d7b565b610fc0565b6101dd6101d83660046122f6565b611251565b60405161015f9190612311565b6000546101fd906001600160a01b031681565b6040516001600160a01b03909116815260200161015f565b6101956102233660046122f6565b6113ce565b610230611717565b60405161015f9190612324565b61025061024b366004612337565b6117f0565b60405190815260200161015f565b61011861026c366004611d7b565b611989565b61011861027f366004611d7b565b611aeb565b60008281526002602081905260409091200154829060ff16151560011480156102dd57506001600082815260026020908152604080832033845260070190915290205460ff1660018111156102db576102db61240a565b145b6103025760405162461bcd60e51b81526004016102f990612420565b60405180910390fd5b6000838152600260205260409020600601546001106103635760405162461bcd60e51b815260206004820152601a60248201527f41646d696e73206c6973742063616e6e6f74206265207a65726f00000000000060448201526064016102f9565b60008381526002602081815260408084206001600160a01b0387168552600781018352908420805460ff191690558684529190526006018054600192906103ab9084906124cb565b9091555050505050565b336000908152600360205260409020546001600160a01b0316156104105760405162461bcd60e51b8152602060048201526012602482015271155cd95c88185b1c9958591e48115e1a5cdd60721b60448201526064016102f9565b336000908152600360209081526040909120855161043692600190920191870190611b93565b5033600081815260036020908152604090912080546001600160a01b0319169092178255845161046c9260020191860190611b93565b50336000908152600360209081526040909120835161049392600490920191850190611b93565b5033600090815260036020908152604090912082516104ba92600590920191840190611b93565b50336006846040516104cc91906124e2565b9081526040516020918190038201902080546001600160a01b0319166001600160a01b03939093169290921790915560078054600181018255600091909152845161053e927fa66cc928b5edb82af9bd49922954155ab7b0942694bea4ce44661d9a8736c68890920191860190611b93565b5050505050565b60008281526002602081905260409091200154829060ff161515600114801561059e57506001600082815260026020908152604080832033845260070190915290205460ff16600181111561059c5761059c61240a565b145b6105ba5760405162461bcd60e51b81526004016102f990612420565b60008381526002602090815260408083206001600160a01b0386168452600801909152902080546001919060ff191682805b0217905550505050565b600080546001600160a01b031633146106635760405162461bcd60e51b815260206004820152602960248201527f4f6e6c792055494441492063616e207375626d69742074686520617070726f76604482015268616c2053746174757360b81b60648201526084016102f9565b506000918252600260208190526040909220909101805460ff1916911515918217905560ff1690565b606080606080606080600060015460016106a691906124fe565b67ffffffffffffffff8111156106be576106be611da7565b6040519080825280602002602001820160405280156106e7578160200160208202803683370190505b509050600060015460016106fb91906124fe565b67ffffffffffffffff81111561071357610713611da7565b60405190808252806020026020018201604052801561074657816020015b60608152602001906001900390816107315790505b5090506000600154600161075a91906124fe565b67ffffffffffffffff81111561077257610772611da7565b60405190808252806020026020018201604052801561079b578160200160208202803683370190505b509050600060015460016107af91906124fe565b67ffffffffffffffff8111156107c7576107c7611da7565b6040519080825280602002602001820160405280156107fa57816020015b60608152602001906001900390816107e55790505b5090506000600154600161080e91906124fe565b67ffffffffffffffff81111561082657610826611da7565b60405190808252806020026020018201604052801561085957816020015b60608152602001906001900390816108445790505b5090506000600154600161086d91906124fe565b67ffffffffffffffff81111561088557610885611da7565b6040519080825280602002602001820160405280156108b857816020015b60608152602001906001900390816108a35790505b50905060015b6001548111610afe57808782815181106108da576108da612516565b6020026020010181815250506002600082815260200190815260200160002060010180546109079061252c565b80601f01602080910402602001604051908101604052809291908181526020018280546109339061252c565b80156109805780601f1061095557610100808354040283529160200191610980565b820191906000526020600020905b81548152906001019060200180831161096357829003601f168201915b505050505086828151811061099757610997612516565b60200260200101819052506002600082815260200190815260200160002060020160009054906101000a900460ff168582815181106109d8576109d8612516565b91151560209283029190910182015260008281526002825260409081902060030180548251818502810185019093528083529192909190830182828015610a3e57602002820191906000526020600020905b815481526020019060010190808311610a2a575b5050505050848281518110610a5557610a55612516565b602002602001018190525060026000828152602001908152602001600020600401805480602002602001604051908101604052809291908181526020018280548015610aca57602002820191906000526020600020905b81546001600160a01b03168152600190910190602001808311610aac575b5050505050838281518110610ae157610ae1612516565b6020908102919091010152610af76001826124fe565b90506108be565b50949b939a50919850965094509092509050565b610b1a611c17565b610b22611c17565b60008481526002602052604081206003018054909190610b4457610b44612516565b906000526020600020015460011415610b75576001600160a01b038084166000908152600360205260409020541681525b600084815260026020526040902060030180546001908110610b9957610b99612516565b906000526020600020015460011415610c59576001600160a01b03831660009081526003602052604090206001018054610bd29061252c565b80601f0160208091040260200160405190810160405280929190818152602001828054610bfe9061252c565b8015610c4b5780601f10610c2057610100808354040283529160200191610c4b565b820191906000526020600020905b815481529060010190602001808311610c2e57829003601f168201915b505050505081602001819052505b60026000858152602001908152602001600020600301600281548110610c8157610c81612516565b906000526020600020015460011415610d41576001600160a01b03831660009081526003602052604090206002018054610cba9061252c565b80601f0160208091040260200160405190810160405280929190818152602001828054610ce69061252c565b8015610d335780601f10610d0857610100808354040283529160200191610d33565b820191906000526020600020905b815481529060010190602001808311610d1657829003601f168201915b505050505081604001819052505b60026000858152602001908152602001600020600301600381548110610d6957610d69612516565b906000526020600020015460011415610e29576001600160a01b03831660009081526003602052604090206004018054610da29061252c565b80601f0160208091040260200160405190810160405280929190818152602001828054610dce9061252c565b8015610e1b5780601f10610df057610100808354040283529160200191610e1b565b820191906000526020600020905b815481529060010190602001808311610dfe57829003601f168201915b505050505081608001819052505b600084815260026020526040902060030180546004908110610e4d57610e4d612516565b906000526020600020015460011415610f0d576001600160a01b03831660009081526003602052604090206005018054610e869061252c565b80601f0160208091040260200160405190810160405280929190818152602001828054610eb29061252c565b8015610eff5780601f10610ed457610100808354040283529160200191610eff565b820191906000526020600020905b815481529060010190602001808311610ee257829003601f168201915b50505050508160a001819052505b9392505050565b606060006001546001610f2791906124fe565b67ffffffffffffffff811115610f3f57610f3f611da7565b604051908082528060200260200182016040528015610f68578160200160208202803683370190505b50905060015b6001548111610fba576000818152600260205260409020600501548251839083908110610f9d57610f9d612516565b6020908102919091010152610fb36001826124fe565b9050610f6e565b50919050565b60008281526002602081905260409091200154829060ff161515600114801561101957506001600082815260026020908152604080832033845260070190915290205460ff1660018111156110175761101761240a565b145b6110355760405162461bcd60e51b81526004016102f990612420565b6001600160a01b038083166000908152600360205260409020548391166110945760405162461bcd60e51b8152602060048201526013602482015272155cd95c88111bd95cc8139bdd08115e1a5cdd606a1b60448201526064016102f9565b600160008581526002602090815260408083206001600160a01b038816845260080190915290205460ff1660018111156110d0576110d061240a565b14156111175760405162461bcd60e51b8152602060048201526016602482015275111d5c1b1a58d85d1a5bdb881c1c9bda1a589a5d195960521b60448201526064016102f9565b60008481526002602090815260408083206001600160a01b0387811685526008820184528285208054600160ff1990911681179091556003855292852060059092018054808501825590865293909420815460069094020180546001600160a01b0319169390941692909217835581810180549293929183019161119a9061252c565b6111a5929190611c56565b5060028201816002019080546111ba9061252c565b6111c5929190611c56565b50600382810180546111da9284019190611cd1565b5060048201816004019080546111ef9061252c565b6111fa929190611c56565b50600582018160050190805461120f9061252c565b61121a929190611c56565b5050506001600160a01b03909216600090815260036020818152604083209091018054600181018255908352912001929092555050565b6001600160a01b0381166000908152600360208181526040808420909201805483518184028101840190945280845260609493928301828280156112b457602002820191906000526020600020905b8154815260200190600101908083116112a0575b505050505090506000815167ffffffffffffffff8111156112d7576112d7611da7565b60405190808252806020026020018201604052801561130a57816020015b60608152602001906001900390816112f55790505b50905060005b82518110156113c6576002600084838151811061132f5761132f612516565b6020026020010151815260200190815260200160002060030180548060200260200160405190810160405280929190818152602001828054801561139257602002820191906000526020600020905b81548152602001906001019080831161137e575b50505050508282815181106113a9576113a9612516565b60209081029190910101526113bf6001826124fe565b9050611310565b509392505050565b6113d6611c17565b336001600160a01b0383161461143d5760405162461bcd60e51b815260206004820152602660248201527f4f6e6c7920757365722063616e2061636365737320746865697220656e74697260448201526565206461746160d01b60648201526084016102f9565b6001600160a01b03808316600090815260036020908152604091829020825160c0810190935280549093168252600183018054929392918401916114809061252c565b80601f01602080910402602001604051908101604052809291908181526020018280546114ac9061252c565b80156114f95780601f106114ce576101008083540402835291602001916114f9565b820191906000526020600020905b8154815290600101906020018083116114dc57829003601f168201915b505050505081526020016002820180546115129061252c565b80601f016020809104026020016040519081016040528092919081815260200182805461153e9061252c565b801561158b5780601f106115605761010080835404028352916020019161158b565b820191906000526020600020905b81548152906001019060200180831161156e57829003601f168201915b50505050508152602001600382018054806020026020016040519081016040528092919081815260200182805480156115e357602002820191906000526020600020905b8154815260200190600101908083116115cf575b505050505081526020016004820180546115fc9061252c565b80601f01602080910402602001604051908101604052809291908181526020018280546116289061252c565b80156116755780601f1061164a57610100808354040283529160200191611675565b820191906000526020600020905b81548152906001019060200180831161165857829003601f168201915b5050505050815260200160058201805461168e9061252c565b80601f01602080910402602001604051908101604052809291908181526020018280546116ba9061252c565b80156117075780601f106116dc57610100808354040283529160200191611707565b820191906000526020600020905b8154815290600101906020018083116116ea57829003601f168201915b5050505050815250509050919050565b60606007805480602002602001604051908101604052809291908181526020016000905b828210156117e757838290600052602060002001805461175a9061252c565b80601f01602080910402602001604051908101604052809291908181526020018280546117869061252c565b80156117d35780601f106117a8576101008083540402835291602001916117d3565b820191906000526020600020905b8154815290600101906020018083116117b657829003601f168201915b50505050508152602001906001019061173b565b50505050905090565b33600090815260046020526040812054156118405760405162461bcd60e51b815260206004820152601060248201526f30b63932b0b23c903932b3b4b9ba32b960811b60448201526064016102f9565b600180600082825461185291906124fe565b9091555050600180546000908152600260209081526040909120865161187f939190910191870190611b93565b5060018054600090815260026020818152604080842088905584548452808420600401805480870182559085528285200180546001600160a01b03191633908117909155855485528185209085526007018252808420805460ff19168617905584548452919052812060060180549091906118fb9084906124fe565b90915550506001546000908152600260209081526040909120835161192892600390920191850190611d10565b50600180546000908152600260208181526040808420909201805460ff191690559254338352600484528183208190558252600883529020855161196e92870190611b93565b50506001546000908152600260205260409020549392505050565b60008281526002602081905260409091200154829060ff16151560011480156119e257506001600082815260026020908152604080832033845260070190915290205460ff1660018111156119e0576119e061240a565b145b6119fe5760405162461bcd60e51b81526004016102f990612420565b60008381526002602090815260408083206001600160a01b038616845260070190915281205460ff166001811115611a3857611a3861240a565b14611a785760405162461bcd60e51b815260206004820152601060248201526f4475706c69636174652041646d696e7360801b60448201526064016102f9565b6000838152600260208181526040808420600481018054600180820183559187528487200180546001600160a01b0319166001600160a01b038a169081179091558652600782018452918520805460ff1916831790558785529290915260069091018054919290916103ab9084906124fe565b60008281526002602081905260409091200154829060ff1615156001148015611b4457506001600082815260026020908152604080832033845260070190915290205460ff166001811115611b4257611b4261240a565b145b611b605760405162461bcd60e51b81526004016102f990612420565b60008381526002602090815260408083206001600160a01b03861684526008019091528120805460ff19166001836105ec565b828054611b9f9061252c565b90600052602060002090601f016020900481019282611bc15760008555611c07565b82601f10611bda57805160ff1916838001178555611c07565b82800160010185558215611c07579182015b82811115611c07578251825591602001919060010190611bec565b50611c13929150611d4a565b5090565b6040518060c0016040528060006001600160a01b0316815260200160608152602001606081526020016060815260200160608152602001606081525090565b828054611c629061252c565b90600052602060002090601f016020900481019282611c845760008555611c07565b82601f10611c955780548555611c07565b82800160010185558215611c0757600052602060002091601f016020900482015b82811115611c07578254825591600101919060010190611cb6565b828054828255906000526020600020908101928215611c0757600052602060002091820182811115611c07578254825591600101919060010190611cb6565b828054828255906000526020600020908101928215611c075791602002820182811115611c07578251825591602001919060010190611bec565b5b80821115611c135760008155600101611d4b565b80356001600160a01b0381168114611d7657600080fd5b919050565b60008060408385031215611d8e57600080fd5b82359150611d9e60208401611d5f565b90509250929050565b634e487b7160e01b600052604160045260246000fd5b604051601f8201601f1916810167ffffffffffffffff81118282101715611de657611de6611da7565b604052919050565b600082601f830112611dff57600080fd5b813567ffffffffffffffff811115611e1957611e19611da7565b611e2c601f8201601f1916602001611dbd565b818152846020838601011115611e4157600080fd5b816020850160208301376000918101602001919091529392505050565b60008060008060808587031215611e7457600080fd5b843567ffffffffffffffff80821115611e8c57600080fd5b611e9888838901611dee565b95506020870135915080821115611eae57600080fd5b611eba88838901611dee565b94506040870135915080821115611ed057600080fd5b611edc88838901611dee565b93506060870135915080821115611ef257600080fd5b50611eff87828801611dee565b91505092959194509250565b60008060408385031215611f1e57600080fd5b8235915060208301358015158114611f3557600080fd5b809150509250929050565b600081518084526020808501945080840160005b83811015611f7057815187529582019590820190600101611f54565b509495945050505050565b60005b83811015611f96578181015183820152602001611f7e565b83811115611fa5576000848401525b50505050565b60008151808452611fc3816020860160208601611f7b565b601f01601f19169290920160200192915050565b600081518084526020808501808196508360051b8101915082860160005b8581101561201f57828403895261200d848351611fab565b98850198935090840190600101611ff5565b5091979650505050505050565b600081518084526020808501808196508360051b8101915082860160005b8581101561201f578284038952612062848351611f40565b9885019893509084019060010161204a565b600081518084526020808501808196508360051b810191508286016000805b868110156120eb578385038a52825180518087529087019087870190845b818110156120d65783516001600160a01b0316835292890192918901916001016120b1565b50509a87019a95505091850191600101612093565b509298975050505050505050565b60018060a01b0381511682526000602082015160c0602085015261212060c0850182611fab565b9050604083015184820360408601526121398282611fab565b915050606083015184820360608601526121538282611f40565b9150506080830151848203608086015261216d8282611fab565b91505060a083015184820360a08601526121878282611fab565b95945050505050565b600081518084526020808501808196506005915083821b81018387016000805b87811015612219578484038b5282518051808652908801908886019080891b87018a01855b8281101561220357601f198983030184526121f18286516120f9565b948c0194938c019391506001016121d5565b509d8a019d9650505092870192506001016121b0565b50919998505050505050505050565b60c08152600061223b60c0830189611f40565b60208382038185015261224e828a611fd7565b84810360408601528851808252828a0193509082019060005b81811015612285578451151583529383019391830191600101612267565b50508481036060860152612299818961202c565b9250505082810360808401526122af8186612074565b905082810360a08401526122c38185612190565b9998505050505050505050565b602081526000610f0d60208301846120f9565b602081526000610f0d6020830184611f40565b60006020828403121561230857600080fd5b610f0d82611d5f565b602081526000610f0d602083018461202c565b602081526000610f0d6020830184611fd7565b60008060006060848603121561234c57600080fd5b833567ffffffffffffffff8082111561236457600080fd5b61237087838801611dee565b94506020915081860135935060408601358181111561238e57600080fd5b8601601f8101881361239f57600080fd5b8035828111156123b1576123b1611da7565b8060051b92506123c2848401611dbd565b818152928201840192848101908a8511156123dc57600080fd5b928501925b848410156123fa578335825292850192908501906123e1565b8096505050505050509250925092565b634e487b7160e01b600052602160045260246000fd5b60208082526069908201527f52657665727465642064756520746f20697341646d696e206d6f64696669657260408201527f2e506f737369626c65206361757365203a206d73672e73656e646572206e6f7460608201527f2061646d696e206f72206167656e6379206973206e6f7420617070726f76656460808201526820627920554944414960b81b60a082015260c00190565b634e487b7160e01b600052601160045260246000fd5b6000828210156124dd576124dd6124b5565b500390565b600082516124f4818460208701611f7b565b9190910192915050565b60008219821115612511576125116124b5565b500190565b634e487b7160e01b600052603260045260246000fd5b600181811c9082168061254057607f821691505b60208210811415610fba57634e487b7160e01b600052602260045260246000fdfea26469706673582212207041ae1e339aa5e3e741e9f0968d7afa191259ea7c2775412f07b40d3c58b62e64736f6c63430008090033",
  "linkReferences": {},
  "deployedLinkReferences": {}
}