{
  "_format": "hh-sol-artifact-1",
  "contractName": "DataVault",
  "sourceName": "contracts/finalVault.sol",
  "abi": [
    {
      "inputs": [],
      "stateMutability": "nonpayable",
      "type": "constructor"
    },
    {
      "inputs": [
        {
          "internalType": "uint256",
          "name": "id",
          "type": "uint256"
        },
        {
          "internalType": "address",
          "name": "newadminAddress",
          "type": "address"
        }
      ],
      "name": "AddAgencyAdmin",
      "outputs": [],
      "stateMutability": "nonpayable",
      "type": "function"
    },
    {
      "inputs": [
        {
          "internalType": "uint256",
          "name": "id",
          "type": "uint256"
        },
        {
          "internalType": "bool",
          "name": "status",
          "type": "bool"
        }
      ],
      "name": "ApproveAgency",
      "outputs": [
        {
          "internalType": "bool",
          "name": "",
          "type": "bool"
        }
      ],
      "stateMutability": "nonpayable",
      "type": "function"
    },
    {
      "inputs": [
        {
          "internalType": "address",
          "name": "AadharHolderWalletAddress",
          "type": "address"
        }
      ],
      "name": "CheckPermissionAccess",
      "outputs": [
        {
          "internalType": "uint256[][]",
          "name": "",
          "type": "uint256[][]"
        }
      ],
      "stateMutability": "view",
      "type": "function"
    },
    {
      "inputs": [
        {
          "internalType": "uint256",
          "name": "id",
          "type": "uint256"
        },
        {
          "internalType": "address",
          "name": "RegAadhaarAddress",
          "type": "address"
        }
      ],
      "name": "MarkAdminAbsent",
      "outputs": [],
      "stateMutability": "nonpayable",
      "type": "function"
    },
    {
      "inputs": [
        {
          "internalType": "uint256",
          "name": "id",
          "type": "uint256"
        },
        {
          "internalType": "address",
          "name": "RegAadhaarAddress",
          "type": "address"
        }
      ],
      "name": "MarkAdminPresent",
      "outputs": [],
      "stateMutability": "nonpayable",
      "type": "function"
    },
    {
      "inputs": [
        {
          "internalType": "uint256",
          "name": "id",
          "type": "uint256"
        },
        {
          "internalType": "address",
          "name": "RegAadhaarAddress",
          "type": "address"
        }
      ],
      "name": "MarkRegAadhaarAbsent",
      "outputs": [],
      "stateMutability": "nonpayable",
      "type": "function"
    },
    {
      "inputs": [
        {
          "internalType": "uint256",
          "name": "id",
          "type": "uint256"
        },
        {
          "internalType": "address",
          "name": "RegAadhaarAddress",
          "type": "address"
        }
      ],
      "name": "MarkRegAadhaarPresent",
      "outputs": [],
      "stateMutability": "nonpayable",
      "type": "function"
    },
    {
      "inputs": [
        {
          "internalType": "uint256",
          "name": "id",
          "type": "uint256"
        },
        {
          "internalType": "address",
          "name": "AadharHolderWalletAddress",
          "type": "address"
        }
      ],
      "name": "RegisterAadhaarInAgency",
      "outputs": [],
      "stateMutability": "nonpayable",
      "type": "function"
    },
    {
      "inputs": [
        {
          "internalType": "string",
          "name": "name",
          "type": "string"
        },
        {
          "internalType": "uint256",
          "name": "govtId",
          "type": "uint256"
        },
        {
          "internalType": "uint256[]",
          "name": "permission",
          "type": "uint256[]"
        }
      ],
      "name": "RegisterAgency",
      "outputs": [
        {
          "internalType": "uint256",
          "name": "",
          "type": "uint256"
        }
      ],
      "stateMutability": "nonpayable",
      "type": "function"
    },
    {
      "inputs": [
        {
          "internalType": "string",
          "name": "name",
          "type": "string"
        },
        {
          "internalType": "string",
          "name": "AadharSig",
          "type": "string"
        },
        {
          "internalType": "string",
          "name": "phoneNumber",
          "type": "string"
        },
        {
          "internalType": "string",
          "name": "residancyAddress",
          "type": "string"
        }
      ],
      "name": "RegisterNewAadhaarHolder",
      "outputs": [],
      "stateMutability": "nonpayable",
      "type": "function"
    },
    {
      "inputs": [],
      "name": "_UIDAI",
      "outputs": [
        {
          "internalType": "address",
          "name": "",
          "type": "address"
        }
      ],
      "stateMutability": "view",
      "type": "function"
    },
    {
      "inputs": [
        {
          "internalType": "uint256",
          "name": "id",
          "type": "uint256"
        },
        {
          "internalType": "address",
          "name": "AadharHolderWalletAddress",
          "type": "address"
        }
      ],
      "name": "getAadharHolderData",
      "outputs": [
        {
          "components": [
            {
              "internalType": "address",
              "name": "ssi_address",
              "type": "address"
            },
            {
              "internalType": "string",
              "name": "AadhaarHolderName",
              "type": "string"
            },
            {
              "internalType": "string",
              "name": "AadhaarSignature",
              "type": "string"
            },
            {
              "internalType": "uint256[]",
              "name": "subscribedAgencies",
              "type": "uint256[]"
            },
            {
              "internalType": "string",
              "name": "phoneNumber",
              "type": "string"
            },
            {
              "internalType": "string",
              "name": "residancyAddress",
              "type": "string"
            }
          ],
          "internalType": "struct AadhaarHolder",
          "name": "",
          "type": "tuple"
        }
      ],
      "stateMutability": "view",
      "type": "function"
    },
    {
      "inputs": [],
      "name": "getAllAgencyData",
      "outputs": [
        {
          "internalType": "uint256[]",
          "name": "",
          "type": "uint256[]"
        },
        {
          "internalType": "string[]",
          "name": "",
          "type": "string[]"
        },
        {
          "internalType": "bool[]",
          "name": "",
          "type": "bool[]"
        },
        {
          "internalType": "uint256[][]",
          "name": "",
          "type": "uint256[][]"
        },
        {
          "internalType": "address[][]",
          "name": "",
          "type": "address[][]"
        },
        {
          "components": [
            {
              "internalType": "address",
              "name": "ssi_address",
              "type": "address"
            },
            {
              "internalType": "string",
              "name": "AadhaarHolderName",
              "type": "string"
            },
            {
              "internalType": "string",
              "name": "AadhaarSignature",
              "type": "string"
            },
            {
              "internalType": "uint256[]",
              "name": "subscribedAgencies",
              "type": "uint256[]"
            },
            {
              "internalType": "string",
              "name": "phoneNumber",
              "type": "string"
            },
            {
              "internalType": "string",
              "name": "residancyAddress",
              "type": "string"
            }
          ],
          "internalType": "struct AadhaarHolder[][]",
          "name": "",
          "type": "tuple[][]"
        },
        {
          "internalType": "uint256[]",
          "name": "",
          "type": "uint256[]"
        }
      ],
      "stateMutability": "view",
      "type": "function"
    },
    {
      "inputs": [],
      "name": "getAllAgencyRegAadhaarCount",
      "outputs": [
        {
          "internalType": "uint256[]",
          "name": "",
          "type": "uint256[]"
        }
      ],
      "stateMutability": "view",
      "type": "function"
    },
    {
      "inputs": [
        {
          "internalType": "address",
          "name": "AadharHolderWalletAddress",
          "type": "address"
        }
      ],
      "name": "getMyAadharData",
      "outputs": [
        {
          "components": [
            {
              "internalType": "address",
              "name": "ssi_address",
              "type": "address"
            },
            {
              "internalType": "string",
              "name": "AadhaarHolderName",
              "type": "string"
            },
            {
              "internalType": "string",
              "name": "AadhaarSignature",
              "type": "string"
            },
            {
              "internalType": "uint256[]",
              "name": "subscribedAgencies",
              "type": "uint256[]"
            },
            {
              "internalType": "string",
              "name": "phoneNumber",
              "type": "string"
            },
            {
              "internalType": "string",
              "name": "residancyAddress",
              "type": "string"
            }
          ],
          "internalType": "struct AadhaarHolder",
          "name": "",
          "type": "tuple"
        }
      ],
      "stateMutability": "view",
      "type": "function"
    },
    {
      "inputs": [],
      "name": "giveAadhaar",
      "outputs": [
        {
          "internalType": "string[]",
          "name": "",
          "type": "string[]"
        }
      ],
      "stateMutability": "view",
      "type": "function"
    }
  ],
  "bytecode": "0x608060405234801561001057600080fd5b506000600181905580546001600160a01b0319163317905561262e806100376000396000f3fe608060405234801561001057600080fd5b50600436106101005760003560e01c80638b3b4f9911610097578063be6603b811610066578063be6603b81461012d578063cebbadd81461023e578063e09802d11461025f578063fb1a98ff1461027257600080fd5b80638b3b4f99146101cb5780638e8e818f146101eb57806393b9eba11461021657806395aafa3d1461022957600080fd5b80635dd7e60b116100d35780635dd7e60b1461016857806368c8c6a4146101835780636ee25743146101a3578063705510bc146101b857600080fd5b8063048e679414610105578063049a526f1461011a57806322d76edc1461012d578063305fdc2a14610140575b600080fd5b610118610113366004611e01565b610285565b005b610118610128366004611ee2565b6103b6565b61011861013b366004611e01565b610546565b61015361014e366004611f8e565b6105f7565b60405190151581526020015b60405180910390f35b61017061068d565b60405161015f97969594939291906122ab565b610196610191366004611e01565b610b9a565b60405161015f9190612368565b6101ab610f9c565b60405161015f919061237b565b6101186101c6366004611e01565b611047565b6101de6101d936600461238e565b6112d8565b60405161015f91906123a9565b6000546101fe906001600160a01b031681565b6040516001600160a01b03909116815260200161015f565b61019661022436600461238e565b611454565b61023161179d565b60405161015f91906123bc565b61025161024c3660046123cf565b611876565b60405190815260200161015f565b61011861026d366004611e01565b611a0f565b610118610280366004611e01565b611b71565b60008281526002602081905260409091200154829060ff16151560011480156102de57506001600082815260026020908152604080832033845260070190915290205460ff1660018111156102dc576102dc6124a1565b145b6103035760405162461bcd60e51b81526004016102fa906124b7565b60405180910390fd5b6000838152600260205260409020600601546001106103645760405162461bcd60e51b815260206004820152601a60248201527f41646d696e73206c6973742063616e6e6f74206265207a65726f00000000000060448201526064016102fa565b60008381526002602081815260408084206001600160a01b0387168552600781018352908420805460ff191690558684529190526006018054600192906103ac908490612562565b9091555050505050565b336000908152600360205260409020546001600160a01b0316156104115760405162461bcd60e51b8152602060048201526012602482015271155cd95c88185b1c9958591e48115e1a5cdd60721b60448201526064016102fa565b336000908152600360209081526040909120855161043792600190920191870190611c19565b5033600081815260036020908152604090912080546001600160a01b0319169092178255845161046d9260020191860190611c19565b50336000908152600360209081526040909120835161049492600490920191850190611c19565b5033600090815260036020908152604090912082516104bb92600590920191840190611c19565b50336006846040516104cd9190612579565b9081526040516020918190038201902080546001600160a01b0319166001600160a01b03939093169290921790915560078054600181018255600091909152845161053f927fa66cc928b5edb82af9bd49922954155ab7b0942694bea4ce44661d9a8736c68890920191860190611c19565b5050505050565b60008281526002602081905260409091200154829060ff161515600114801561059f57506001600082815260026020908152604080832033845260070190915290205460ff16600181111561059d5761059d6124a1565b145b6105bb5760405162461bcd60e51b81526004016102fa906124b7565b60008381526002602090815260408083206001600160a01b0386168452600801909152902080546001919060ff191682805b0217905550505050565b600080546001600160a01b031633146106645760405162461bcd60e51b815260206004820152602960248201527f4f6e6c792055494441492063616e207375626d69742074686520617070726f76604482015268616c2053746174757360b81b60648201526084016102fa565b506000918252600260208190526040909220909101805460ff1916911515918217905560ff1690565b6060806060806060806060600060015460016106a99190612595565b6001600160401b038111156106c0576106c0611e2d565b6040519080825280602002602001820160405280156106e9578160200160208202803683370190505b509050600060015460016106fd9190612595565b6001600160401b0381111561071457610714611e2d565b60405190808252806020026020018201604052801561074757816020015b60608152602001906001900390816107325790505b5090506000600154600161075b9190612595565b6001600160401b0381111561077257610772611e2d565b60405190808252806020026020018201604052801561079b578160200160208202803683370190505b509050600060015460016107af9190612595565b6001600160401b038111156107c6576107c6611e2d565b6040519080825280602002602001820160405280156107f957816020015b60608152602001906001900390816107e45790505b5090506000600154600161080d9190612595565b6001600160401b0381111561082457610824611e2d565b60405190808252806020026020018201604052801561085757816020015b60608152602001906001900390816108425790505b5090506000600154600161086b9190612595565b6001600160401b0381111561088257610882611e2d565b6040519080825280602002602001820160405280156108b557816020015b60608152602001906001900390816108a05790505b509050600060015460016108c99190612595565b6001600160401b038111156108e0576108e0611e2d565b604051908082528060200260200182016040528015610909578160200160208202803683370190505b50905060015b6001548111610b83578088828151811061092b5761092b6125ad565b602002602001018181525050600260008281526020019081526020016000206001018054610958906125c3565b80601f0160208091040260200160405190810160405280929190818152602001828054610984906125c3565b80156109d15780601f106109a6576101008083540402835291602001916109d1565b820191906000526020600020905b8154815290600101906020018083116109b457829003601f168201915b50505050508782815181106109e8576109e86125ad565b60200260200101819052506002600082815260200190815260200160002060020160009054906101000a900460ff16868281518110610a2957610a296125ad565b91151560209283029190910182015260008281526002825260409081902060030180548251818502810185019093528083529192909190830182828015610a8f57602002820191906000526020600020905b815481526020019060010190808311610a7b575b5050505050858281518110610aa657610aa66125ad565b602002602001018190525060026000828152602001908152602001600020600401805480602002602001604051908101604052809291908181526020018280548015610b1b57602002820191906000526020600020905b81546001600160a01b03168152600190910190602001808311610afd575b5050505050848281518110610b3257610b326125ad565b60200260200101819052506002600082815260200190815260200160002060000154828281518110610b6657610b666125ad565b6020908102919091010152610b7c600182612595565b905061090f565b50959d949c50929a50909850965094509092509050565b610ba2611c9d565b610baa611c9d565b60008481526002602052604081206003018054909190610bcc57610bcc6125ad565b906000526020600020015460011415610bfd576001600160a01b038084166000908152600360205260409020541681525b600084815260026020526040902060030180546001908110610c2157610c216125ad565b906000526020600020015460011415610ce1576001600160a01b03831660009081526003602052604090206001018054610c5a906125c3565b80601f0160208091040260200160405190810160405280929190818152602001828054610c86906125c3565b8015610cd35780601f10610ca857610100808354040283529160200191610cd3565b820191906000526020600020905b815481529060010190602001808311610cb657829003601f168201915b505050505081602001819052505b60026000858152602001908152602001600020600301600281548110610d0957610d096125ad565b906000526020600020015460011415610dc9576001600160a01b03831660009081526003602052604090206002018054610d42906125c3565b80601f0160208091040260200160405190810160405280929190818152602001828054610d6e906125c3565b8015610dbb5780601f10610d9057610100808354040283529160200191610dbb565b820191906000526020600020905b815481529060010190602001808311610d9e57829003601f168201915b505050505081604001819052505b60026000858152602001908152602001600020600301600381548110610df157610df16125ad565b906000526020600020015460011415610eb1576001600160a01b03831660009081526003602052604090206004018054610e2a906125c3565b80601f0160208091040260200160405190810160405280929190818152602001828054610e56906125c3565b8015610ea35780601f10610e7857610100808354040283529160200191610ea3565b820191906000526020600020905b815481529060010190602001808311610e8657829003601f168201915b505050505081608001819052505b600084815260026020526040902060030180546004908110610ed557610ed56125ad565b906000526020600020015460011415610f95576001600160a01b03831660009081526003602052604090206005018054610f0e906125c3565b80601f0160208091040260200160405190810160405280929190818152602001828054610f3a906125c3565b8015610f875780601f10610f5c57610100808354040283529160200191610f87565b820191906000526020600020905b815481529060010190602001808311610f6a57829003601f168201915b50505050508160a001819052505b9392505050565b606060006001546001610faf9190612595565b6001600160401b03811115610fc657610fc6611e2d565b604051908082528060200260200182016040528015610fef578160200160208202803683370190505b50905060015b6001548111611041576000818152600260205260409020600501548251839083908110611024576110246125ad565b602090810291909101015261103a600182612595565b9050610ff5565b50919050565b60008281526002602081905260409091200154829060ff16151560011480156110a057506001600082815260026020908152604080832033845260070190915290205460ff16600181111561109e5761109e6124a1565b145b6110bc5760405162461bcd60e51b81526004016102fa906124b7565b6001600160a01b0380831660009081526003602052604090205483911661111b5760405162461bcd60e51b8152602060048201526013602482015272155cd95c88111bd95cc8139bdd08115e1a5cdd606a1b60448201526064016102fa565b600160008581526002602090815260408083206001600160a01b038816845260080190915290205460ff166001811115611157576111576124a1565b141561119e5760405162461bcd60e51b8152602060048201526016602482015275111d5c1b1a58d85d1a5bdb881c1c9bda1a589a5d195960521b60448201526064016102fa565b60008481526002602090815260408083206001600160a01b0387811685526008820184528285208054600160ff1990911681179091556003855292852060059092018054808501825590865293909420815460069094020180546001600160a01b03191693909416929092178355818101805492939291830191611221906125c3565b61122c929190611cdc565b506002820181600201908054611241906125c3565b61124c929190611cdc565b50600382810180546112619284019190611d57565b506004820181600401908054611276906125c3565b611281929190611cdc565b506005820181600501908054611296906125c3565b6112a1929190611cdc565b5050506001600160a01b03909216600090815260036020818152604083209091018054600181018255908352912001929092555050565b6001600160a01b03811660009081526003602081815260408084209092018054835181840281018401909452808452606094939283018282801561133b57602002820191906000526020600020905b815481526020019060010190808311611327575b50505050509050600081516001600160401b0381111561135d5761135d611e2d565b60405190808252806020026020018201604052801561139057816020015b606081526020019060019003908161137b5790505b50905060005b825181101561144c57600260008483815181106113b5576113b56125ad565b6020026020010151815260200190815260200160002060030180548060200260200160405190810160405280929190818152602001828054801561141857602002820191906000526020600020905b815481526020019060010190808311611404575b505050505082828151811061142f5761142f6125ad565b6020908102919091010152611445600182612595565b9050611396565b509392505050565b61145c611c9d565b336001600160a01b038316146114c35760405162461bcd60e51b815260206004820152602660248201527f4f6e6c7920757365722063616e2061636365737320746865697220656e74697260448201526565206461746160d01b60648201526084016102fa565b6001600160a01b03808316600090815260036020908152604091829020825160c081019093528054909316825260018301805492939291840191611506906125c3565b80601f0160208091040260200160405190810160405280929190818152602001828054611532906125c3565b801561157f5780601f106115545761010080835404028352916020019161157f565b820191906000526020600020905b81548152906001019060200180831161156257829003601f168201915b50505050508152602001600282018054611598906125c3565b80601f01602080910402602001604051908101604052809291908181526020018280546115c4906125c3565b80156116115780601f106115e657610100808354040283529160200191611611565b820191906000526020600020905b8154815290600101906020018083116115f457829003601f168201915b505050505081526020016003820180548060200260200160405190810160405280929190818152602001828054801561166957602002820191906000526020600020905b815481526020019060010190808311611655575b50505050508152602001600482018054611682906125c3565b80601f01602080910402602001604051908101604052809291908181526020018280546116ae906125c3565b80156116fb5780601f106116d0576101008083540402835291602001916116fb565b820191906000526020600020905b8154815290600101906020018083116116de57829003601f168201915b50505050508152602001600582018054611714906125c3565b80601f0160208091040260200160405190810160405280929190818152602001828054611740906125c3565b801561178d5780601f106117625761010080835404028352916020019161178d565b820191906000526020600020905b81548152906001019060200180831161177057829003601f168201915b5050505050815250509050919050565b60606007805480602002602001604051908101604052809291908181526020016000905b8282101561186d5783829060005260206000200180546117e0906125c3565b80601f016020809104026020016040519081016040528092919081815260200182805461180c906125c3565b80156118595780601f1061182e57610100808354040283529160200191611859565b820191906000526020600020905b81548152906001019060200180831161183c57829003601f168201915b5050505050815260200190600101906117c1565b50505050905090565b33600090815260046020526040812054156118c65760405162461bcd60e51b815260206004820152601060248201526f30b63932b0b23c903932b3b4b9ba32b960811b60448201526064016102fa565b60018060008282546118d89190612595565b90915550506001805460009081526002602090815260409091208651611905939190910191870190611c19565b5060018054600090815260026020818152604080842088905584548452808420600401805480870182559085528285200180546001600160a01b03191633908117909155855485528185209085526007018252808420805460ff1916861790558454845291905281206006018054909190611981908490612595565b9091555050600154600090815260026020908152604090912083516119ae92600390920191850190611d96565b50600180546000908152600260208181526040808420909201805460ff19169055925433835260048452818320819055825260088352902085516119f492870190611c19565b50506001546000908152600260205260409020549392505050565b60008281526002602081905260409091200154829060ff1615156001148015611a6857506001600082815260026020908152604080832033845260070190915290205460ff166001811115611a6657611a666124a1565b145b611a845760405162461bcd60e51b81526004016102fa906124b7565b60008381526002602090815260408083206001600160a01b038616845260070190915281205460ff166001811115611abe57611abe6124a1565b14611afe5760405162461bcd60e51b815260206004820152601060248201526f4475706c69636174652041646d696e7360801b60448201526064016102fa565b6000838152600260208181526040808420600481018054600180820183559187528487200180546001600160a01b0319166001600160a01b038a169081179091558652600782018452918520805460ff1916831790558785529290915260069091018054919290916103ac908490612595565b60008281526002602081905260409091200154829060ff1615156001148015611bca57506001600082815260026020908152604080832033845260070190915290205460ff166001811115611bc857611bc86124a1565b145b611be65760405162461bcd60e51b81526004016102fa906124b7565b60008381526002602090815260408083206001600160a01b03861684526008019091528120805460ff19166001836105ed565b828054611c25906125c3565b90600052602060002090601f016020900481019282611c475760008555611c8d565b82601f10611c6057805160ff1916838001178555611c8d565b82800160010185558215611c8d579182015b82811115611c8d578251825591602001919060010190611c72565b50611c99929150611dd0565b5090565b6040518060c0016040528060006001600160a01b0316815260200160608152602001606081526020016060815260200160608152602001606081525090565b828054611ce8906125c3565b90600052602060002090601f016020900481019282611d0a5760008555611c8d565b82601f10611d1b5780548555611c8d565b82800160010185558215611c8d57600052602060002091601f016020900482015b82811115611c8d578254825591600101919060010190611d3c565b828054828255906000526020600020908101928215611c8d57600052602060002091820182811115611c8d578254825591600101919060010190611d3c565b828054828255906000526020600020908101928215611c8d5791602002820182811115611c8d578251825591602001919060010190611c72565b5b80821115611c995760008155600101611dd1565b80356001600160a01b0381168114611dfc57600080fd5b919050565b60008060408385031215611e1457600080fd5b82359150611e2460208401611de5565b90509250929050565b634e487b7160e01b600052604160045260246000fd5b604051601f8201601f191681016001600160401b0381118282101715611e6b57611e6b611e2d565b604052919050565b600082601f830112611e8457600080fd5b81356001600160401b03811115611e9d57611e9d611e2d565b611eb0601f8201601f1916602001611e43565b818152846020838601011115611ec557600080fd5b816020850160208301376000918101602001919091529392505050565b60008060008060808587031215611ef857600080fd5b84356001600160401b0380821115611f0f57600080fd5b611f1b88838901611e73565b95506020870135915080821115611f3157600080fd5b611f3d88838901611e73565b94506040870135915080821115611f5357600080fd5b611f5f88838901611e73565b93506060870135915080821115611f7557600080fd5b50611f8287828801611e73565b91505092959194509250565b60008060408385031215611fa157600080fd5b8235915060208301358015158114611fb857600080fd5b809150509250929050565b600081518084526020808501945080840160005b83811015611ff357815187529582019590820190600101611fd7565b509495945050505050565b60005b83811015612019578181015183820152602001612001565b83811115612028576000848401525b50505050565b60008151808452612046816020860160208601611ffe565b601f01601f19169290920160200192915050565b600081518084526020808501808196508360051b8101915082860160005b858110156120a257828403895261209084835161202e565b98850198935090840190600101612078565b5091979650505050505050565b600081518084526020808501808196508360051b8101915082860160005b858110156120a25782840389526120e5848351611fc3565b988501989350908401906001016120cd565b6000815180845260208085019450848260051b86018286016000805b8681101561216b578484038a52825180518086529087019087860190845b818110156121565783516001600160a01b031683529289019291890191600101612131565b50509a87019a94505091850191600101612113565b509198975050505050505050565b60018060a01b0381511682526000602082015160c060208501526121a060c085018261202e565b9050604083015184820360408601526121b9828261202e565b915050606083015184820360608601526121d38282611fc3565b915050608083015184820360808601526121ed828261202e565b91505060a083015184820360a0860152612207828261202e565b95945050505050565b60008282518085526020808601955060058183821b8501018287016000805b8681101561229c57601f1988850381018c5283518051808752908801908887019080891b88018a01865b8281101561228557858a8303018452612273828651612179565b948c0194938c01939150600101612259565b509e8a019e9750505093870193505060010161222f565b50919998505050505050505050565b60e0815260006122be60e083018a611fc3565b6020838203818501526122d1828b61205a565b84810360408601528951808252828b0193509082019060005b818110156123085784511515835293830193918301916001016122ea565b5050848103606086015261231c818a6120af565b92505050828103608084015261233281876120f7565b905082810360a08401526123468186612210565b905082810360c084015261235a8185611fc3565b9a9950505050505050505050565b602081526000610f956020830184612179565b602081526000610f956020830184611fc3565b6000602082840312156123a057600080fd5b610f9582611de5565b602081526000610f9560208301846120af565b602081526000610f95602083018461205a565b6000806000606084860312156123e457600080fd5b83356001600160401b03808211156123fb57600080fd5b61240787838801611e73565b94506020915081860135935060408601358181111561242557600080fd5b8601601f8101881361243657600080fd5b80358281111561244857612448611e2d565b8060051b9250612459848401611e43565b818152928201840192848101908a85111561247357600080fd5b928501925b8484101561249157833582529285019290850190612478565b8096505050505050509250925092565b634e487b7160e01b600052602160045260246000fd5b60208082526069908201527f52657665727465642064756520746f20697341646d696e206d6f64696669657260408201527f2e506f737369626c65206361757365203a206d73672e73656e646572206e6f7460608201527f2061646d696e206f72206167656e6379206973206e6f7420617070726f76656460808201526820627920554944414960b81b60a082015260c00190565b634e487b7160e01b600052601160045260246000fd5b6000828210156125745761257461254c565b500390565b6000825161258b818460208701611ffe565b9190910192915050565b600082198211156125a8576125a861254c565b500190565b634e487b7160e01b600052603260045260246000fd5b600181811c908216806125d757607f821691505b6020821081141561104157634e487b7160e01b600052602260045260246000fdfea2646970667358221220ff683c0623dc03b13db10babb35fdcceb68380463194bf5d005e28bc9df1af8e64736f6c63430008090033",
  "linkReferences": {},
  "deployedLinkReferences": {}
}