{
  "_format": "hh-sol-artifact-1",
  "contractName": "DataVault",
  "sourceName": "contracts/finalVault.sol",
  "abi": [
    {
      "inputs": [],
      "stateMutability": "nonpayable",
      "type": "constructor"
    },
    {
      "inputs": [
        {
          "internalType": "uint256",
          "name": "id",
          "type": "uint256"
        },
        {
          "internalType": "address",
          "name": "newadminAddress",
          "type": "address"
        }
      ],
      "name": "AddAgencyAdmin",
      "outputs": [],
      "stateMutability": "nonpayable",
      "type": "function"
    },
    {
      "inputs": [
        {
          "internalType": "uint256",
          "name": "id",
          "type": "uint256"
        },
        {
          "internalType": "bool",
          "name": "status",
          "type": "bool"
        }
      ],
      "name": "ApproveAgency",
      "outputs": [
        {
          "internalType": "bool",
          "name": "",
          "type": "bool"
        }
      ],
      "stateMutability": "nonpayable",
      "type": "function"
    },
    {
      "inputs": [
        {
          "internalType": "address",
          "name": "AadharHolderWalletAddress",
          "type": "address"
        }
      ],
      "name": "CheckPermissionAccess",
      "outputs": [
        {
          "internalType": "uint256[][]",
          "name": "",
          "type": "uint256[][]"
        }
      ],
      "stateMutability": "view",
      "type": "function"
    },
    {
      "inputs": [
        {
          "internalType": "uint256",
          "name": "id",
          "type": "uint256"
        },
        {
          "internalType": "address",
          "name": "RegAadhaarAddress",
          "type": "address"
        }
      ],
      "name": "MarkAdminAbsent",
      "outputs": [],
      "stateMutability": "nonpayable",
      "type": "function"
    },
    {
      "inputs": [
        {
          "internalType": "uint256",
          "name": "id",
          "type": "uint256"
        },
        {
          "internalType": "address",
          "name": "RegAadhaarAddress",
          "type": "address"
        }
      ],
      "name": "MarkAdminPresent",
      "outputs": [],
      "stateMutability": "nonpayable",
      "type": "function"
    },
    {
      "inputs": [
        {
          "internalType": "uint256",
          "name": "id",
          "type": "uint256"
        },
        {
          "internalType": "address",
          "name": "RegAadhaarAddress",
          "type": "address"
        }
      ],
      "name": "MarkRegAadhaarAbsent",
      "outputs": [],
      "stateMutability": "nonpayable",
      "type": "function"
    },
    {
      "inputs": [
        {
          "internalType": "uint256",
          "name": "id",
          "type": "uint256"
        },
        {
          "internalType": "address",
          "name": "RegAadhaarAddress",
          "type": "address"
        }
      ],
      "name": "MarkRegAadhaarPresent",
      "outputs": [],
      "stateMutability": "nonpayable",
      "type": "function"
    },
    {
      "inputs": [
        {
          "internalType": "uint256",
          "name": "id",
          "type": "uint256"
        },
        {
          "internalType": "address",
          "name": "AadharHolderWalletAddress",
          "type": "address"
        }
      ],
      "name": "RegisterAadhaarInAgency",
      "outputs": [],
      "stateMutability": "nonpayable",
      "type": "function"
    },
    {
      "inputs": [
        {
          "internalType": "string",
          "name": "name",
          "type": "string"
        },
        {
          "internalType": "uint256[]",
          "name": "permission",
          "type": "uint256[]"
        }
      ],
      "name": "RegisterAgency",
      "outputs": [
        {
          "internalType": "uint256",
          "name": "",
          "type": "uint256"
        }
      ],
      "stateMutability": "nonpayable",
      "type": "function"
    },
    {
      "inputs": [
        {
          "internalType": "string",
          "name": "name",
          "type": "string"
        },
        {
          "internalType": "string",
          "name": "AadharSig",
          "type": "string"
        }
      ],
      "name": "RegisterNewAadhaarHolder",
      "outputs": [],
      "stateMutability": "nonpayable",
      "type": "function"
    },
    {
      "inputs": [],
      "name": "_UIDAI",
      "outputs": [
        {
          "internalType": "address",
          "name": "",
          "type": "address"
        }
      ],
      "stateMutability": "view",
      "type": "function"
    },
    {
      "inputs": [
        {
          "internalType": "uint256",
          "name": "id",
          "type": "uint256"
        },
        {
          "internalType": "address",
          "name": "AadharHolderWalletAddress",
          "type": "address"
        }
      ],
      "name": "getAadharHolderData",
      "outputs": [
        {
          "components": [
            {
              "internalType": "address",
              "name": "ssi_address",
              "type": "address"
            },
            {
              "internalType": "string",
              "name": "AadhaarHolderName",
              "type": "string"
            },
            {
              "internalType": "string",
              "name": "AadhaarSignature",
              "type": "string"
            },
            {
              "internalType": "uint256[]",
              "name": "subscribedAgencies",
              "type": "uint256[]"
            },
            {
              "internalType": "string",
              "name": "phoneNumber",
              "type": "string"
            },
            {
              "internalType": "string",
              "name": "residancyAddress",
              "type": "string"
            }
          ],
          "internalType": "struct AadhaarHolder",
          "name": "",
          "type": "tuple"
        }
      ],
      "stateMutability": "view",
      "type": "function"
    },
    {
      "inputs": [],
      "name": "getAllAgencyData",
      "outputs": [
        {
          "internalType": "uint256[]",
          "name": "",
          "type": "uint256[]"
        },
        {
          "internalType": "string[]",
          "name": "",
          "type": "string[]"
        },
        {
          "internalType": "bool[]",
          "name": "",
          "type": "bool[]"
        },
        {
          "internalType": "uint256[][]",
          "name": "",
          "type": "uint256[][]"
        },
        {
          "internalType": "address[][]",
          "name": "",
          "type": "address[][]"
        },
        {
          "components": [
            {
              "internalType": "address",
              "name": "ssi_address",
              "type": "address"
            },
            {
              "internalType": "string",
              "name": "AadhaarHolderName",
              "type": "string"
            },
            {
              "internalType": "string",
              "name": "AadhaarSignature",
              "type": "string"
            },
            {
              "internalType": "uint256[]",
              "name": "subscribedAgencies",
              "type": "uint256[]"
            },
            {
              "internalType": "string",
              "name": "phoneNumber",
              "type": "string"
            },
            {
              "internalType": "string",
              "name": "residancyAddress",
              "type": "string"
            }
          ],
          "internalType": "struct AadhaarHolder[][]",
          "name": "",
          "type": "tuple[][]"
        }
      ],
      "stateMutability": "view",
      "type": "function"
    },
    {
      "inputs": [],
      "name": "getAllAgencyRegAadhaarCount",
      "outputs": [
        {
          "internalType": "uint256[]",
          "name": "",
          "type": "uint256[]"
        }
      ],
      "stateMutability": "view",
      "type": "function"
    },
    {
      "inputs": [],
      "name": "getAllRegisteredAgencyName",
      "outputs": [
        {
          "internalType": "string[]",
          "name": "",
          "type": "string[]"
        }
      ],
      "stateMutability": "view",
      "type": "function"
    },
    {
      "inputs": [
        {
          "internalType": "address",
          "name": "AadharHolderWalletAddress",
          "type": "address"
        }
      ],
      "name": "getMyAadharData",
      "outputs": [
        {
          "components": [
            {
              "internalType": "address",
              "name": "ssi_address",
              "type": "address"
            },
            {
              "internalType": "string",
              "name": "AadhaarHolderName",
              "type": "string"
            },
            {
              "internalType": "string",
              "name": "AadhaarSignature",
              "type": "string"
            },
            {
              "internalType": "uint256[]",
              "name": "subscribedAgencies",
              "type": "uint256[]"
            },
            {
              "internalType": "string",
              "name": "phoneNumber",
              "type": "string"
            },
            {
              "internalType": "string",
              "name": "residancyAddress",
              "type": "string"
            }
          ],
          "internalType": "struct AadhaarHolder",
          "name": "",
          "type": "tuple"
        }
      ],
      "stateMutability": "view",
      "type": "function"
    },
    {
      "inputs": [],
      "name": "giveAadhaar",
      "outputs": [
        {
          "internalType": "string[]",
          "name": "",
          "type": "string[]"
        }
      ],
      "stateMutability": "view",
      "type": "function"
    }
  ],
  "bytecode": "0x608060405234801561001057600080fd5b506000600181905580546001600160a01b03191633179055612479806100376000396000f3fe608060405234801561001057600080fd5b506004361061010b5760003560e01c8063705510bc116100a257806393b9eba11161007157806393b9eba11461025657806395aafa3d14610269578063be6603b814610125578063e09802d114610271578063fb1a98ff1461028457600080fd5b8063705510bc146101e35780638b3b4f99146101f65780638e8e818f146102165780639381d60e1461024157600080fd5b80635dd7e60b116100de5780635dd7e60b1461018157806368c8c6a41461019b5780636a4b447f146101bb5780636ee25743146101ce57600080fd5b8063048e67941461011057806322d76edc14610125578063305fdc2a1461013857806339ecdcf014610160575b600080fd5b61012361011e366004611caf565b610297565b005b610123610133366004611caf565b6103c8565b61014b610146366004611cdb565b610479565b60405190151581526020015b60405180910390f35b61017361016e366004611dc7565b61050f565b604051908152602001610157565b6101896106c9565b60405161015796959493929190612179565b6101ae6101a9366004611caf565b610b5f565b6040516101579190612221565b6101236101c9366004612234565b610d95565b6101d6610f11565b6040516101579190612298565b6101236101f1366004611caf565b610fbd565b6102096102043660046122ab565b61124e565b60405161015791906122c6565b600054610229906001600160a01b031681565b6040516001600160a01b039091168152602001610157565b6102496113cb565b60405161015791906122d9565b6101ae6102643660046122ab565b6114a4565b6102496117ed565b61012361027f366004611caf565b6118bd565b610123610292366004611caf565b611a1f565b60008281526002602081905260409091200154829060ff16151560011480156102f057506001600082815260026020908152604080832033845260070190915290205460ff1660018111156102ee576102ee6122ec565b145b6103155760405162461bcd60e51b815260040161030c90612302565b60405180910390fd5b6000838152600260205260409020600601546001106103765760405162461bcd60e51b815260206004820152601a60248201527f41646d696e73206c6973742063616e6e6f74206265207a65726f000000000000604482015260640161030c565b60008381526002602081815260408084206001600160a01b0387168552600781018352908420805460ff191690558684529190526006018054600192906103be9084906123ad565b9091555050505050565b60008281526002602081905260409091200154829060ff161515600114801561042157506001600082815260026020908152604080832033845260070190915290205460ff16600181111561041f5761041f6122ec565b145b61043d5760405162461bcd60e51b815260040161030c90612302565b60008381526002602090815260408083206001600160a01b0386168452600801909152902080546001919060ff191682805b0217905550505050565b600080546001600160a01b031633146104e65760405162461bcd60e51b815260206004820152602960248201527f4f6e6c792055494441492063616e207375626d69742074686520617070726f76604482015268616c2053746174757360b81b606482015260840161030c565b506000918252600260208190526040909220909101805460ff1916911515918217905560ff1690565b336000908152600460205260408120541561055f5760405162461bcd60e51b815260206004820152601060248201526f30b63932b0b23c903932b3b4b9ba32b960811b604482015260640161030c565b600180600082825461057191906123c4565b9091555050600180546000908152600260209081526040909120855161059e939190910191860190611ac7565b506001805460008181526002602081815260408084209485556004909401805480870182559084528184200180546001600160a01b03191633908117909155855484528484209084526007018152838320805460ff191686179055845483525290812060060180549091906106149084906123c4565b90915550506001546000908152600260209081526040909120835161064192600390920191850190611b4b565b50600180546000908152600260208181526040808420909201805460ff191690558354338452600482529183209190915560088054938401815590915284516106af927ff3f7a9fe364faab93b216da50a3214154f22a0a2b415b23a84c8169e8b636ee30191860190611ac7565b505060015460009081526002602052604090205492915050565b606080606080606080600060015460016106e391906123c4565b67ffffffffffffffff8111156106fb576106fb611d10565b604051908082528060200260200182016040528015610724578160200160208202803683370190505b5090506000600154600161073891906123c4565b67ffffffffffffffff81111561075057610750611d10565b60405190808252806020026020018201604052801561078357816020015b606081526020019060019003908161076e5790505b5090506000600154600161079791906123c4565b67ffffffffffffffff8111156107af576107af611d10565b6040519080825280602002602001820160405280156107d8578160200160208202803683370190505b509050600060015460016107ec91906123c4565b67ffffffffffffffff81111561080457610804611d10565b60405190808252806020026020018201604052801561083757816020015b60608152602001906001900390816108225790505b5090506000600154600161084b91906123c4565b67ffffffffffffffff81111561086357610863611d10565b60405190808252806020026020018201604052801561089657816020015b60608152602001906001900390816108815790505b509050600060015460016108aa91906123c4565b67ffffffffffffffff8111156108c2576108c2611d10565b6040519080825280602002602001820160405280156108f557816020015b60608152602001906001900390816108e05790505b50905060015b6001548111610b4b576000818152600260205260409020548751889083908110610927576109276123dc565b602002602001018181525050600260008281526020019081526020016000206001018054610954906123f2565b80601f0160208091040260200160405190810160405280929190818152602001828054610980906123f2565b80156109cd5780601f106109a2576101008083540402835291602001916109cd565b820191906000526020600020905b8154815290600101906020018083116109b057829003601f168201915b50505050508682815181106109e4576109e46123dc565b60200260200101819052506002600082815260200190815260200160002060020160009054906101000a900460ff16858281518110610a2557610a256123dc565b91151560209283029190910182015260008281526002825260409081902060030180548251818502810185019093528083529192909190830182828015610a8b57602002820191906000526020600020905b815481526020019060010190808311610a77575b5050505050848281518110610aa257610aa26123dc565b602002602001018190525060026000828152602001908152602001600020600401805480602002602001604051908101604052809291908181526020018280548015610b1757602002820191906000526020600020905b81546001600160a01b03168152600190910190602001808311610af9575b5050505050838281518110610b2e57610b2e6123dc565b6020908102919091010152610b446001826123c4565b90506108fb565b50949b939a50919850965094509092509050565b610b67611b85565b610b6f611b85565b60008481526002602052604081206003018054909190610b9157610b916123dc565b906000526020600020015460011415610bc2576001600160a01b038084166000908152600360205260409020541681525b600084815260026020526040902060030180546001908110610be657610be66123dc565b906000526020600020015460011415610ca6576001600160a01b03831660009081526003602052604090206001018054610c1f906123f2565b80601f0160208091040260200160405190810160405280929190818152602001828054610c4b906123f2565b8015610c985780601f10610c6d57610100808354040283529160200191610c98565b820191906000526020600020905b815481529060010190602001808311610c7b57829003601f168201915b505050505081602001819052505b60026000858152602001908152602001600020600301600281548110610cce57610cce6123dc565b906000526020600020015460011415610d8e576001600160a01b03831660009081526003602052604090206002018054610d07906123f2565b80601f0160208091040260200160405190810160405280929190818152602001828054610d33906123f2565b8015610d805780601f10610d5557610100808354040283529160200191610d80565b820191906000526020600020905b815481529060010190602001808311610d6357829003601f168201915b505050505081604001819052505b9392505050565b336000908152600360205260409020546001600160a01b0316158015610deb5750336001600160a01b0316600682604051610dd09190612427565b908152604051908190036020019020546001600160a01b0316145b610e2c5760405162461bcd60e51b8152602060048201526012602482015271155cd95c88185b1c9958591e48115e1a5cdd60721b604482015260640161030c565b3360009081526003602090815260409091208351610e5292600190920191850190611ac7565b5033600081815260036020908152604090912080546001600160a01b03191690921782558251610e889260020191840190611ac7565b5033600682604051610e9a9190612427565b9081526040516020918190038201902080546001600160a01b0319166001600160a01b039390931692909217909155600780546001810182556000919091528251610f0c927fa66cc928b5edb82af9bd49922954155ab7b0942694bea4ce44661d9a8736c68890920191840190611ac7565b505050565b606060006001546001610f2491906123c4565b67ffffffffffffffff811115610f3c57610f3c611d10565b604051908082528060200260200182016040528015610f65578160200160208202803683370190505b50905060015b6001548111610fb7576000818152600260205260409020600501548251839083908110610f9a57610f9a6123dc565b6020908102919091010152610fb06001826123c4565b9050610f6b565b50919050565b60008281526002602081905260409091200154829060ff161515600114801561101657506001600082815260026020908152604080832033845260070190915290205460ff166001811115611014576110146122ec565b145b6110325760405162461bcd60e51b815260040161030c90612302565b6001600160a01b038083166000908152600360205260409020548391166110915760405162461bcd60e51b8152602060048201526013602482015272155cd95c88111bd95cc8139bdd08115e1a5cdd606a1b604482015260640161030c565b600160008581526002602090815260408083206001600160a01b038816845260080190915290205460ff1660018111156110cd576110cd6122ec565b14156111145760405162461bcd60e51b8152602060048201526016602482015275111d5c1b1a58d85d1a5bdb881c1c9bda1a589a5d195960521b604482015260640161030c565b60008481526002602090815260408083206001600160a01b0387811685526008820184528285208054600160ff1990911681179091556003855292852060059092018054808501825590865293909420815460069094020180546001600160a01b03191693909416929092178355818101805492939291830191611197906123f2565b6111a2929190611bc4565b5060028201816002019080546111b7906123f2565b6111c2929190611bc4565b50600382810180546111d79284019190611c3f565b5060048201816004019080546111ec906123f2565b6111f7929190611bc4565b50600582018160050190805461120c906123f2565b611217929190611bc4565b5050506001600160a01b03909216600090815260036020818152604083209091018054600181018255908352912001929092555050565b6001600160a01b0381166000908152600360208181526040808420909201805483518184028101840190945280845260609493928301828280156112b157602002820191906000526020600020905b81548152602001906001019080831161129d575b505050505090506000815167ffffffffffffffff8111156112d4576112d4611d10565b60405190808252806020026020018201604052801561130757816020015b60608152602001906001900390816112f25790505b50905060005b82518110156113c3576002600084838151811061132c5761132c6123dc565b6020026020010151815260200190815260200160002060030180548060200260200160405190810160405280929190818152602001828054801561138f57602002820191906000526020600020905b81548152602001906001019080831161137b575b50505050508282815181106113a6576113a66123dc565b60209081029190910101526113bc6001826123c4565b905061130d565b509392505050565b60606008805480602002602001604051908101604052809291908181526020016000905b8282101561149b57838290600052602060002001805461140e906123f2565b80601f016020809104026020016040519081016040528092919081815260200182805461143a906123f2565b80156114875780601f1061145c57610100808354040283529160200191611487565b820191906000526020600020905b81548152906001019060200180831161146a57829003601f168201915b5050505050815260200190600101906113ef565b50505050905090565b6114ac611b85565b336001600160a01b038316146115135760405162461bcd60e51b815260206004820152602660248201527f4f6e6c7920757365722063616e2061636365737320746865697220656e74697260448201526565206461746160d01b606482015260840161030c565b6001600160a01b03808316600090815260036020908152604091829020825160c081019093528054909316825260018301805492939291840191611556906123f2565b80601f0160208091040260200160405190810160405280929190818152602001828054611582906123f2565b80156115cf5780601f106115a4576101008083540402835291602001916115cf565b820191906000526020600020905b8154815290600101906020018083116115b257829003601f168201915b505050505081526020016002820180546115e8906123f2565b80601f0160208091040260200160405190810160405280929190818152602001828054611614906123f2565b80156116615780601f1061163657610100808354040283529160200191611661565b820191906000526020600020905b81548152906001019060200180831161164457829003601f168201915b50505050508152602001600382018054806020026020016040519081016040528092919081815260200182805480156116b957602002820191906000526020600020905b8154815260200190600101908083116116a5575b505050505081526020016004820180546116d2906123f2565b80601f01602080910402602001604051908101604052809291908181526020018280546116fe906123f2565b801561174b5780601f106117205761010080835404028352916020019161174b565b820191906000526020600020905b81548152906001019060200180831161172e57829003601f168201915b50505050508152602001600582018054611764906123f2565b80601f0160208091040260200160405190810160405280929190818152602001828054611790906123f2565b80156117dd5780601f106117b2576101008083540402835291602001916117dd565b820191906000526020600020905b8154815290600101906020018083116117c057829003601f168201915b5050505050815250509050919050565b60606007805480602002602001604051908101604052809291908181526020016000905b8282101561149b578382906000526020600020018054611830906123f2565b80601f016020809104026020016040519081016040528092919081815260200182805461185c906123f2565b80156118a95780601f1061187e576101008083540402835291602001916118a9565b820191906000526020600020905b81548152906001019060200180831161188c57829003601f168201915b505050505081526020019060010190611811565b60008281526002602081905260409091200154829060ff161515600114801561191657506001600082815260026020908152604080832033845260070190915290205460ff166001811115611914576119146122ec565b145b6119325760405162461bcd60e51b815260040161030c90612302565b60008381526002602090815260408083206001600160a01b038616845260070190915281205460ff16600181111561196c5761196c6122ec565b146119ac5760405162461bcd60e51b815260206004820152601060248201526f4475706c69636174652041646d696e7360801b604482015260640161030c565b6000838152600260208181526040808420600481018054600180820183559187528487200180546001600160a01b0319166001600160a01b038a169081179091558652600782018452918520805460ff1916831790558785529290915260069091018054919290916103be9084906123c4565b60008281526002602081905260409091200154829060ff1615156001148015611a7857506001600082815260026020908152604080832033845260070190915290205460ff166001811115611a7657611a766122ec565b145b611a945760405162461bcd60e51b815260040161030c90612302565b60008381526002602090815260408083206001600160a01b03861684526008019091528120805460ff191660018361046f565b828054611ad3906123f2565b90600052602060002090601f016020900481019282611af55760008555611b3b565b82601f10611b0e57805160ff1916838001178555611b3b565b82800160010185558215611b3b579182015b82811115611b3b578251825591602001919060010190611b20565b50611b47929150611c7e565b5090565b828054828255906000526020600020908101928215611b3b5791602002820182811115611b3b578251825591602001919060010190611b20565b6040518060c0016040528060006001600160a01b0316815260200160608152602001606081526020016060815260200160608152602001606081525090565b828054611bd0906123f2565b90600052602060002090601f016020900481019282611bf25760008555611b3b565b82601f10611c035780548555611b3b565b82800160010185558215611b3b57600052602060002091601f016020900482015b82811115611b3b578254825591600101919060010190611c24565b828054828255906000526020600020908101928215611b3b57600052602060002091820182811115611b3b578254825591600101919060010190611c24565b5b80821115611b475760008155600101611c7f565b80356001600160a01b0381168114611caa57600080fd5b919050565b60008060408385031215611cc257600080fd5b82359150611cd260208401611c93565b90509250929050565b60008060408385031215611cee57600080fd5b8235915060208301358015158114611d0557600080fd5b809150509250929050565b634e487b7160e01b600052604160045260246000fd5b604051601f8201601f1916810167ffffffffffffffff81118282101715611d4f57611d4f611d10565b604052919050565b600082601f830112611d6857600080fd5b813567ffffffffffffffff811115611d8257611d82611d10565b611d95601f8201601f1916602001611d26565b818152846020838601011115611daa57600080fd5b816020850160208301376000918101602001919091529392505050565b60008060408385031215611dda57600080fd5b823567ffffffffffffffff80821115611df257600080fd5b611dfe86838701611d57565b9350602091508185013581811115611e1557600080fd5b8501601f81018713611e2657600080fd5b803582811115611e3857611e38611d10565b8060051b9250611e49848401611d26565b8181529282018401928481019089851115611e6357600080fd5b928501925b84841015611e8157833582529285019290850190611e68565b8096505050505050509250929050565b600081518084526020808501945080840160005b83811015611ec157815187529582019590820190600101611ea5565b509495945050505050565b60005b83811015611ee7578181015183820152602001611ecf565b83811115611ef6576000848401525b50505050565b60008151808452611f14816020860160208601611ecc565b601f01601f19169290920160200192915050565b600081518084526020808501808196508360051b8101915082860160005b85811015611f70578284038952611f5e848351611efc565b98850198935090840190600101611f46565b5091979650505050505050565b600081518084526020808501808196508360051b8101915082860160005b85811015611f70578284038952611fb3848351611e91565b98850198935090840190600101611f9b565b600081518084526020808501808196508360051b810191508286016000805b8681101561203c578385038a52825180518087529087019087870190845b818110156120275783516001600160a01b031683529289019291890191600101612002565b50509a87019a95505091850191600101611fe4565b509298975050505050505050565b60018060a01b0381511682526000602082015160c0602085015261207160c0850182611efc565b90506040830151848203604086015261208a8282611efc565b915050606083015184820360608601526120a48282611e91565b915050608083015184820360808601526120be8282611efc565b91505060a083015184820360a08601526120d88282611efc565b95945050505050565b600081518084526020808501808196506005915083821b81018387016000805b8781101561216a578484038b5282518051808652908801908886019080891b87018a01855b8281101561215457601f1989830301845261214282865161204a565b948c0194938c01939150600101612126565b509d8a019d965050509287019250600101612101565b50919998505050505050505050565b60c08152600061218c60c0830189611e91565b60208382038185015261219f828a611f28565b84810360408601528851808252828a0193509082019060005b818110156121d65784511515835293830193918301916001016121b8565b505084810360608601526121ea8189611f7d565b9250505082810360808401526122008186611fc5565b905082810360a084015261221481856120e1565b9998505050505050505050565b602081526000610d8e602083018461204a565b6000806040838503121561224757600080fd5b823567ffffffffffffffff8082111561225f57600080fd5b61226b86838701611d57565b9350602085013591508082111561228157600080fd5b5061228e85828601611d57565b9150509250929050565b602081526000610d8e6020830184611e91565b6000602082840312156122bd57600080fd5b610d8e82611c93565b602081526000610d8e6020830184611f7d565b602081526000610d8e6020830184611f28565b634e487b7160e01b600052602160045260246000fd5b60208082526069908201527f52657665727465642064756520746f20697341646d696e206d6f64696669657260408201527f2e506f737369626c65206361757365203a206d73672e73656e646572206e6f7460608201527f2061646d696e206f72206167656e6379206973206e6f7420617070726f76656460808201526820627920554944414960b81b60a082015260c00190565b634e487b7160e01b600052601160045260246000fd5b6000828210156123bf576123bf612397565b500390565b600082198211156123d7576123d7612397565b500190565b634e487b7160e01b600052603260045260246000fd5b600181811c9082168061240657607f821691505b60208210811415610fb757634e487b7160e01b600052602260045260246000fd5b60008251612439818460208701611ecc565b919091019291505056fea264697066735822122067b7d19e84603fa140e644d2a6090388063446361e517be08bf59f04b7da171964736f6c63430008090033",
  "linkReferences": {},
  "deployedLinkReferences": {}
}