{
  "_format": "hh-sol-artifact-1",
  "contractName": "DataVault",
  "sourceName": "contracts/DatavaultV6.sol",
  "abi": [
    {
      "inputs": [],
      "stateMutability": "nonpayable",
      "type": "constructor"
    },
    {
      "anonymous": false,
      "inputs": [
        {
          "indexed": false,
          "internalType": "address",
          "name": "RegAadhaarAddress",
          "type": "address"
        },
        {
          "indexed": false,
          "internalType": "string",
          "name": "name",
          "type": "string"
        },
        {
          "indexed": false,
          "internalType": "string",
          "name": "AadharSig",
          "type": "string"
        }
      ],
      "name": "AadhaarHolderRegistered",
      "type": "event"
    },
    {
      "anonymous": false,
      "inputs": [
        {
          "indexed": false,
          "internalType": "string",
          "name": "name",
          "type": "string"
        },
        {
          "indexed": false,
          "internalType": "address",
          "name": "regAdmin",
          "type": "address"
        },
        {
          "indexed": false,
          "internalType": "uint256[]",
          "name": "permission",
          "type": "uint256[]"
        }
      ],
      "name": "AgencyRegistered",
      "type": "event"
    },
    {
      "inputs": [
        {
          "internalType": "uint256",
          "name": "id",
          "type": "uint256"
        },
        {
          "internalType": "address",
          "name": "newadminAddress",
          "type": "address"
        }
      ],
      "name": "AddAgencyAdmin",
      "outputs": [],
      "stateMutability": "nonpayable",
      "type": "function"
    },
    {
      "inputs": [
        {
          "internalType": "uint256",
          "name": "id",
          "type": "uint256"
        },
        {
          "internalType": "bool",
          "name": "status",
          "type": "bool"
        }
      ],
      "name": "ApproveAgency",
      "outputs": [
        {
          "internalType": "bool",
          "name": "",
          "type": "bool"
        }
      ],
      "stateMutability": "nonpayable",
      "type": "function"
    },
    {
      "inputs": [
        {
          "internalType": "address",
          "name": "AadharHolderWalletAddress",
          "type": "address"
        }
      ],
      "name": "CheckPermissionAccess",
      "outputs": [
        {
          "internalType": "uint256[][]",
          "name": "",
          "type": "uint256[][]"
        }
      ],
      "stateMutability": "view",
      "type": "function"
    },
    {
      "inputs": [
        {
          "internalType": "uint256",
          "name": "id",
          "type": "uint256"
        },
        {
          "internalType": "address",
          "name": "RegAadhaarAddress",
          "type": "address"
        }
      ],
      "name": "MarkAdminAbsent",
      "outputs": [],
      "stateMutability": "nonpayable",
      "type": "function"
    },
    {
      "inputs": [
        {
          "internalType": "uint256",
          "name": "id",
          "type": "uint256"
        },
        {
          "internalType": "address",
          "name": "RegAadhaarAddress",
          "type": "address"
        }
      ],
      "name": "MarkAdminPresent",
      "outputs": [],
      "stateMutability": "nonpayable",
      "type": "function"
    },
    {
      "inputs": [
        {
          "internalType": "uint256",
          "name": "id",
          "type": "uint256"
        },
        {
          "internalType": "address",
          "name": "RegAadhaarAddress",
          "type": "address"
        }
      ],
      "name": "MarkRegAadhaarAbsent",
      "outputs": [],
      "stateMutability": "nonpayable",
      "type": "function"
    },
    {
      "inputs": [
        {
          "internalType": "uint256",
          "name": "id",
          "type": "uint256"
        },
        {
          "internalType": "address",
          "name": "RegAadhaarAddress",
          "type": "address"
        }
      ],
      "name": "MarkRegAadhaarPresent",
      "outputs": [],
      "stateMutability": "nonpayable",
      "type": "function"
    },
    {
      "inputs": [
        {
          "internalType": "uint256",
          "name": "id",
          "type": "uint256"
        },
        {
          "internalType": "address",
          "name": "AadharHolderWalletAddress",
          "type": "address"
        }
      ],
      "name": "RegisterAadhaarInAgency",
      "outputs": [],
      "stateMutability": "nonpayable",
      "type": "function"
    },
    {
      "inputs": [
        {
          "internalType": "string",
          "name": "name",
          "type": "string"
        },
        {
          "internalType": "uint256[]",
          "name": "permission",
          "type": "uint256[]"
        }
      ],
      "name": "RegisterAgency",
      "outputs": [
        {
          "internalType": "uint256",
          "name": "",
          "type": "uint256"
        }
      ],
      "stateMutability": "nonpayable",
      "type": "function"
    },
    {
      "inputs": [
        {
          "internalType": "string",
          "name": "name",
          "type": "string"
        },
        {
          "internalType": "string",
          "name": "AadharSig",
          "type": "string"
        }
      ],
      "name": "RegisterNewAadhaarHolder",
      "outputs": [
        {
          "internalType": "bool",
          "name": "",
          "type": "bool"
        }
      ],
      "stateMutability": "nonpayable",
      "type": "function"
    },
    {
      "inputs": [],
      "name": "_UIDAI",
      "outputs": [
        {
          "internalType": "address",
          "name": "",
          "type": "address"
        }
      ],
      "stateMutability": "view",
      "type": "function"
    },
    {
      "inputs": [
        {
          "internalType": "uint256",
          "name": "id",
          "type": "uint256"
        }
      ],
      "name": "accessCertifiedData",
      "outputs": [
        {
          "components": [
            {
              "internalType": "address",
              "name": "ssi_address",
              "type": "address"
            },
            {
              "internalType": "string",
              "name": "AadhaarHolderName",
              "type": "string"
            },
            {
              "internalType": "string",
              "name": "AadhaarSignature",
              "type": "string"
            },
            {
              "internalType": "uint256[]",
              "name": "subscribedAgencies",
              "type": "uint256[]"
            }
          ],
          "internalType": "struct AadhaarHolder[]",
          "name": "",
          "type": "tuple[]"
        }
      ],
      "stateMutability": "view",
      "type": "function"
    },
    {
      "inputs": [
        {
          "internalType": "uint256",
          "name": "id",
          "type": "uint256"
        },
        {
          "internalType": "address",
          "name": "AadharHolderWalletAddress",
          "type": "address"
        }
      ],
      "name": "accessCertifiedData",
      "outputs": [
        {
          "components": [
            {
              "internalType": "address",
              "name": "ssi_address",
              "type": "address"
            },
            {
              "internalType": "string",
              "name": "AadhaarHolderName",
              "type": "string"
            },
            {
              "internalType": "string",
              "name": "AadhaarSignature",
              "type": "string"
            },
            {
              "internalType": "uint256[]",
              "name": "subscribedAgencies",
              "type": "uint256[]"
            }
          ],
          "internalType": "struct AadhaarHolder",
          "name": "",
          "type": "tuple"
        }
      ],
      "stateMutability": "view",
      "type": "function"
    },
    {
      "inputs": [],
      "name": "getAllAgencyData",
      "outputs": [
        {
          "internalType": "uint256[]",
          "name": "",
          "type": "uint256[]"
        },
        {
          "internalType": "string[]",
          "name": "",
          "type": "string[]"
        },
        {
          "internalType": "bool[]",
          "name": "",
          "type": "bool[]"
        },
        {
          "internalType": "uint256[][]",
          "name": "",
          "type": "uint256[][]"
        },
        {
          "internalType": "address[][]",
          "name": "",
          "type": "address[][]"
        }
      ],
      "stateMutability": "view",
      "type": "function"
    },
    {
      "inputs": [],
      "name": "getAllAgencyRegAadhaarCount",
      "outputs": [
        {
          "internalType": "uint256[]",
          "name": "",
          "type": "uint256[]"
        }
      ],
      "stateMutability": "view",
      "type": "function"
    },
    {
      "inputs": [
        {
          "internalType": "address",
          "name": "AadharHolderWalletAddress",
          "type": "address"
        }
      ],
      "name": "getMyAadharData",
      "outputs": [
        {
          "components": [
            {
              "internalType": "address",
              "name": "ssi_address",
              "type": "address"
            },
            {
              "internalType": "string",
              "name": "AadhaarHolderName",
              "type": "string"
            },
            {
              "internalType": "string",
              "name": "AadhaarSignature",
              "type": "string"
            },
            {
              "internalType": "uint256[]",
              "name": "subscribedAgencies",
              "type": "uint256[]"
            }
          ],
          "internalType": "struct AadhaarHolder",
          "name": "",
          "type": "tuple"
        }
      ],
      "stateMutability": "view",
      "type": "function"
    },
    {
      "inputs": [
        {
          "internalType": "uint256",
          "name": "id",
          "type": "uint256"
        },
        {
          "internalType": "address",
          "name": "AadharHolderWalletAddress",
          "type": "address"
        }
      ],
      "name": "getMyAgencyAadharHolderData",
      "outputs": [
        {
          "components": [
            {
              "internalType": "address",
              "name": "ssi_address",
              "type": "address"
            },
            {
              "internalType": "string",
              "name": "AadhaarHolderName",
              "type": "string"
            },
            {
              "internalType": "string",
              "name": "AadhaarSignature",
              "type": "string"
            },
            {
              "internalType": "uint256[]",
              "name": "subscribedAgencies",
              "type": "uint256[]"
            }
          ],
          "internalType": "struct AadhaarHolder",
          "name": "",
          "type": "tuple"
        }
      ],
      "stateMutability": "view",
      "type": "function"
    },
    {
      "inputs": [
        {
          "internalType": "uint256",
          "name": "id",
          "type": "uint256"
        }
      ],
      "name": "getMyAgencyAadharHolderData",
      "outputs": [
        {
          "components": [
            {
              "internalType": "address",
              "name": "ssi_address",
              "type": "address"
            },
            {
              "internalType": "string",
              "name": "AadhaarHolderName",
              "type": "string"
            },
            {
              "internalType": "string",
              "name": "AadhaarSignature",
              "type": "string"
            },
            {
              "internalType": "uint256[]",
              "name": "subscribedAgencies",
              "type": "uint256[]"
            }
          ],
          "internalType": "struct AadhaarHolder[]",
          "name": "",
          "type": "tuple[]"
        }
      ],
      "stateMutability": "view",
      "type": "function"
    },
    {
      "inputs": [],
      "name": "giveAadhaar",
      "outputs": [
        {
          "internalType": "string[]",
          "name": "",
          "type": "string[]"
        }
      ],
      "stateMutability": "view",
      "type": "function"
    },
    {
      "inputs": [
        {
          "internalType": "uint256",
          "name": "idFrom",
          "type": "uint256"
        }
      ],
      "name": "grantDataToAgency",
      "outputs": [],
      "stateMutability": "nonpayable",
      "type": "function"
    },
    {
      "inputs": [
        {
          "internalType": "uint256",
          "name": "idFrom",
          "type": "uint256"
        }
      ],
      "name": "revokeDataToAgency",
      "outputs": [],
      "stateMutability": "nonpayable",
      "type": "function"
    },
    {
      "inputs": [
        {
          "internalType": "uint256",
          "name": "idFrom",
          "type": "uint256"
        },
        {
          "internalType": "uint256",
          "name": "idTo",
          "type": "uint256"
        }
      ],
      "name": "sendDataToAgency",
      "outputs": [],
      "stateMutability": "nonpayable",
      "type": "function"
    }
  ],
  "bytecode": "0x608060405234801561001057600080fd5b506000600181905580546001600160a01b03191633179055612936806100376000396000f3fe608060405234801561001057600080fd5b50600436106101425760003560e01c8063705510bc116100b8578063be6603b81161007c578063be6603b8146101ab578063be66e8eb146102dc578063c3c947ef146102fc578063e01cee6a1461030f578063e09802d114610322578063fb1a98ff1461033557600080fd5b8063705510bc146102565780638b3b4f99146102695780638e8e818f1461028957806393b9eba1146102b457806395aafa3d146102c757600080fd5b8063278488b81161010a578063278488b8146101be578063305fdc2a146101d157806339ecdcf0146101f45780635dd7e60b146102155780636a4b447f1461022e5780636ee257431461024157600080fd5b8063048e67941461014757806304e2c92d1461015c5780630de51a52146101855780630f3f4b1f1461019857806322d76edc146101ab575b600080fd5b61015a6101553660046120ba565b610348565b005b61016f61016a3660046120ba565b610479565b60405161017c91906121d1565b60405180910390f35b61015a6101933660046121e4565b610494565b61015a6101a63660046121e4565b610528565b61015a6101b93660046120ba565b6105b9565b61015a6101cc3660046121fd565b61066a565b6101e46101df36600461221f565b61075a565b604051901515815260200161017c565b61020761020236600461230b565b6107f0565b60405190815260200161017c565b61021d6109b0565b60405161017c959493929190612478565b6101e461023c36600461257c565b610de4565b610249610f3a565b60405161017c91906125e0565b61015a6102643660046120ba565b610fe6565b61027c6102773660046125f3565b611237565b60405161017c919061260e565b60005461029c906001600160a01b031681565b6040516001600160a01b03909116815260200161017c565b61016f6102c23660046125f3565b6113b4565b6102cf6115d9565b60405161017c9190612621565b6102ef6102ea3660046121e4565b6116b2565b60405161017c9190612634565b6102ef61030a3660046121e4565b61173a565b61016f61031d3660046120ba565b6117a6565b61015a6103303660046120ba565b61180e565b61015a6103433660046120ba565b611970565b60008281526002602081905260409091200154829060ff16151560011480156103a157506001600082815260026020908152604080832033845260070190915290205460ff16600181111561039f5761039f612696565b145b6103c65760405162461bcd60e51b81526004016103bd906126ac565b60405180910390fd5b6000838152600260205260409020600601546001106104275760405162461bcd60e51b815260206004820152601a60248201527f41646d696e73206c6973742063616e6e6f74206265207a65726f00000000000060448201526064016103bd565b60008381526002602081815260408084206001600160a01b0387168552600781018352908420805460ff1916905586845291905260060180546001929061046f908490612757565b9091555050505050565b610481611ee0565b61048b8383611a18565b90505b92915050565b60008181526002602081905260409091200154819060ff16151560011480156104ed57506001600082815260026020908152604080832033845260070190915290205460ff1660018111156104eb576104eb612696565b145b6105095760405162461bcd60e51b81526004016103bd906126ac565b506000908152600560205260409020600201805460ff19166001179055565b60008181526002602081905260409091200154819060ff161515600114801561058157506001600082815260026020908152604080832033845260070190915290205460ff16600181111561057f5761057f612696565b145b61059d5760405162461bcd60e51b81526004016103bd906126ac565b506000908152600560205260409020600201805460ff19169055565b60008281526002602081905260409091200154829060ff161515600114801561061257506001600082815260026020908152604080832033845260070190915290205460ff16600181111561061057610610612696565b145b61062e5760405162461bcd60e51b81526004016103bd906126ac565b60008381526002602090815260408083206001600160a01b0386168452600801909152902080546001919060ff191682805b0217905550505050565b60008281526002602081905260409091200154829060ff16151560011480156106c357506001600082815260026020908152604080832033845260070190915290205460ff1660018111156106c1576106c1612696565b145b6106df5760405162461bcd60e51b81526004016103bd906126ac565b60008281526002602090815260408083206004018054825181850281018501909352808352919290919083018282801561074257602002820191906000526020600020905b81546001600160a01b03168152600190910190602001808311610724575b50505050509050610754838583611c4d565b50505050565b600080546001600160a01b031633146107c75760405162461bcd60e51b815260206004820152602960248201527f4f6e6c792055494441492063616e207375626d69742074686520617070726f76604482015268616c2053746174757360b81b60648201526084016103bd565b506000918252600260208190526040909220909101805460ff1916911515918217905560ff1690565b33600090815260046020526040812054156108405760405162461bcd60e51b815260206004820152601060248201526f30b63932b0b23c903932b3b4b9ba32b960811b60448201526064016103bd565b6001806000828254610852919061276e565b9091555050600180546000908152600260209081526040909120855161087f939190910191860190611f11565b506001805460008181526002602081815260408084209485556004909401805480870182559084528184200180546001600160a01b03191633908117909155855484528484209084526007018152838320805460ff191686179055845483525290812060060180549091906108f590849061276e565b90915550506001546000908152600260209081526040909120835161092292600390920191850190611f95565b506001805460009081526002602081815260408084208301805460ff1916905584543380865260048452828620829055908552929091529182902091517fbcbc0a9448d83dfc6a37d59b47e5cc0567553f857ca268803e6a395fa62b97709361098f93019190869061285b565b60405180910390a15060015460009081526002602052604090205492915050565b6060806060806060600060015460016109c9919061276e565b67ffffffffffffffff8111156109e1576109e1612254565b604051908082528060200260200182016040528015610a0a578160200160208202803683370190505b50905060006001546001610a1e919061276e565b67ffffffffffffffff811115610a3657610a36612254565b604051908082528060200260200182016040528015610a6957816020015b6060815260200190600190039081610a545790505b50905060006001546001610a7d919061276e565b67ffffffffffffffff811115610a9557610a95612254565b604051908082528060200260200182016040528015610abe578160200160208202803683370190505b50905060006001546001610ad2919061276e565b67ffffffffffffffff811115610aea57610aea612254565b604051908082528060200260200182016040528015610b1d57816020015b6060815260200190600190039081610b085790505b50905060006001546001610b31919061276e565b67ffffffffffffffff811115610b4957610b49612254565b604051908082528060200260200182016040528015610b7c57816020015b6060815260200190600190039081610b675790505b50905060015b6001548111610dd2576000818152600260205260409020548651879083908110610bae57610bae612899565b602002602001018181525050600260008281526020019081526020016000206001018054610bdb90612786565b80601f0160208091040260200160405190810160405280929190818152602001828054610c0790612786565b8015610c545780601f10610c2957610100808354040283529160200191610c54565b820191906000526020600020905b815481529060010190602001808311610c3757829003601f168201915b5050505050858281518110610c6b57610c6b612899565b60200260200101819052506002600082815260200190815260200160002060020160009054906101000a900460ff16848281518110610cac57610cac612899565b91151560209283029190910182015260008281526002825260409081902060030180548251818502810185019093528083529192909190830182828015610d1257602002820191906000526020600020905b815481526020019060010190808311610cfe575b5050505050838281518110610d2957610d29612899565b602002602001018190525060026000828152602001908152602001600020600401805480602002602001604051908101604052809291908181526020018280548015610d9e57602002820191906000526020600020905b81546001600160a01b03168152600190910190602001808311610d80575b5050505050828281518110610db557610db5612899565b6020908102919091010152610dcb60018261276e565b9050610b82565b50939992985090965094509092509050565b336000908152600360205260408120546001600160a01b031615610e3f5760405162461bcd60e51b8152602060048201526012602482015271155cd95c88185b1c9958591e48115e1a5cdd60721b60448201526064016103bd565b3360009081526003602090815260409091208451610e6592600190920191860190611f11565b5033600081815260036020908152604090912080546001600160a01b03191690921782558351610e9b9260020191850190611f11565b50600680546001810182556000919091528251610edf917ff652222313e28459528d920b65115c16c04f3efc82aaedc97be59f3f377c0d3f01906020850190611f11565b50336000818152600360205260409081902090517fe97258af9ebbc0ed07f959a71ef7e6fe3abc111bb3a90c80d39faa55d537880592610f299290916001820191600201906128af565b60405180910390a150600192915050565b606060006001546001610f4d919061276e565b67ffffffffffffffff811115610f6557610f65612254565b604051908082528060200260200182016040528015610f8e578160200160208202803683370190505b50905060015b6001548111610fe0576000818152600260205260409020600501548251839083908110610fc357610fc3612899565b6020908102919091010152610fd960018261276e565b9050610f94565b50919050565b60008281526002602081905260409091200154829060ff161515600114801561103f57506001600082815260026020908152604080832033845260070190915290205460ff16600181111561103d5761103d612696565b145b61105b5760405162461bcd60e51b81526004016103bd906126ac565b6001600160a01b038083166000908152600360205260409020548391166110ba5760405162461bcd60e51b8152602060048201526013602482015272155cd95c88111bd95cc8139bdd08115e1a5cdd606a1b60448201526064016103bd565b600160008581526002602090815260408083206001600160a01b038816845260080190915290205460ff1660018111156110f6576110f6612696565b141561113d5760405162461bcd60e51b8152602060048201526016602482015275111d5c1b1a58d85d1a5bdb881c1c9bda1a589a5d195960521b60448201526064016103bd565b60008481526002602090815260408083206001600160a01b0387811685526008820184528285208054600160ff1990911681179091556003855292852060059092018054808501825590865293909420815460049094020180546001600160a01b031916939094169290921783558181018054929392918301916111c090612786565b6111cb929190611fcf565b5060028201816002019080546111e090612786565b6111eb929190611fcf565b5060038281018054611200928401919061204a565b5050506001600160a01b03909216600090815260036020818152604083209091018054600181018255908352912001929092555050565b6001600160a01b03811660009081526003602081815260408084209092018054835181840281018401909452808452606094939283018282801561129a57602002820191906000526020600020905b815481526020019060010190808311611286575b505050505090506000815167ffffffffffffffff8111156112bd576112bd612254565b6040519080825280602002602001820160405280156112f057816020015b60608152602001906001900390816112db5790505b50905060005b82518110156113ac576002600084838151811061131557611315612899565b6020026020010151815260200190815260200160002060030180548060200260200160405190810160405280929190818152602001828054801561137857602002820191906000526020600020905b815481526020019060010190808311611364575b505050505082828151811061138f5761138f612899565b60209081029190910101526113a560018261276e565b90506112f6565b509392505050565b6113bc611ee0565b336001600160a01b038316146114235760405162461bcd60e51b815260206004820152602660248201527f4f6e6c7920757365722063616e2061636365737320746865697220656e74697260448201526565206461746160d01b60648201526084016103bd565b6001600160a01b03808316600090815260036020908152604091829020825160808101909352805490931682526001830180549293929184019161146690612786565b80601f016020809104026020016040519081016040528092919081815260200182805461149290612786565b80156114df5780601f106114b4576101008083540402835291602001916114df565b820191906000526020600020905b8154815290600101906020018083116114c257829003601f168201915b505050505081526020016002820180546114f890612786565b80601f016020809104026020016040519081016040528092919081815260200182805461152490612786565b80156115715780601f1061154657610100808354040283529160200191611571565b820191906000526020600020905b81548152906001019060200180831161155457829003601f168201915b50505050508152602001600382018054806020026020016040519081016040528092919081815260200182805480156115c957602002820191906000526020600020905b8154815260200190600101908083116115b5575b5050505050815250509050919050565b60606006805480602002602001604051908101604052809291908181526020016000905b828210156116a957838290600052602060002001805461161c90612786565b80601f016020809104026020016040519081016040528092919081815260200182805461164890612786565b80156116955780601f1061166a57610100808354040283529160200191611695565b820191906000526020600020905b81548152906001019060200180831161167857829003601f168201915b5050505050815260200190600101906115fd565b50505050905090565b60008181526002602081905260409091200154606090829060ff161515600114801561170e57506001600082815260026020908152604080832033845260070190915290205460ff16600181111561170c5761170c612696565b145b61172a5760405162461bcd60e51b81526004016103bd906126ac565b61173383611d5d565b9392505050565b60008181526005602052604090206002015460609060ff161515600114801561176857506117683383611e62565b61179d5760405162461bcd60e51b81526004016103bd9060208082526004908201526319985a5b60e21b604082015260600190565b61048e82611d5d565b6117ae611ee0565b60008381526005602052604090206002015460ff16151560011480156117d957506117d93384611e62565b6104815760405162461bcd60e51b81526004016103bd9060208082526004908201526319985a5b60e21b604082015260600190565b60008281526002602081905260409091200154829060ff161515600114801561186757506001600082815260026020908152604080832033845260070190915290205460ff16600181111561186557611865612696565b145b6118835760405162461bcd60e51b81526004016103bd906126ac565b60008381526002602090815260408083206001600160a01b038616845260070190915281205460ff1660018111156118bd576118bd612696565b146118fd5760405162461bcd60e51b815260206004820152601060248201526f4475706c69636174652041646d696e7360801b60448201526064016103bd565b6000838152600260208181526040808420600481018054600180820183559187528487200180546001600160a01b0319166001600160a01b038a169081179091558652600782018452918520805460ff19168317905587855292909152600690910180549192909161046f90849061276e565b60008281526002602081905260409091200154829060ff16151560011480156119c957506001600082815260026020908152604080832033845260070190915290205460ff1660018111156119c7576119c7612696565b145b6119e55760405162461bcd60e51b81526004016103bd906126ac565b60008381526002602090815260408083206001600160a01b03861684526008019091528120805460ff1916600183610660565b611a20611ee0565b611a28611ee0565b60008481526002602052604081206003018054909190611a4a57611a4a612899565b906000526020600020015460011415611a7b576001600160a01b038084166000908152600360205260409020541681525b600084815260026020526040902060030180546001908110611a9f57611a9f612899565b906000526020600020015460011415611b5f576001600160a01b03831660009081526003602052604090206001018054611ad890612786565b80601f0160208091040260200160405190810160405280929190818152602001828054611b0490612786565b8015611b515780601f10611b2657610100808354040283529160200191611b51565b820191906000526020600020905b815481529060010190602001808311611b3457829003601f168201915b505050505081602001819052505b60026000858152602001908152602001600020600301600281548110611b8757611b87612899565b90600052602060002001546001141561048b576001600160a01b03831660009081526003602052604090206002018054611bc090612786565b80601f0160208091040260200160405190810160405280929190818152602001828054611bec90612786565b8015611c395780601f10611c0e57610100808354040283529160200191611c39565b820191906000526020600020905b815481529060010190602001808311611c1c57829003601f168201915b505050505081604001819052509392505050565b604080516080810182528381526020810185905260019181019190915233606082015260005b8251811015611cf45760026000858152602001908152602001600020600401838281518110611ca457611ca4612899565b60209081029190910181015182546001808201855560009485529290932090920180546001600160a01b0319166001600160a01b0390931692909217909155611ced908261276e565b9050611c73565b506000928352600560209081526040938490208251815590820151600182015592810151600290930180546060909201516001600160a81b0319909216931515610100600160a81b031916939093176101006001600160a01b0390921691909102179091555050565b6000818152600260205260408120600501546060919067ffffffffffffffff811115611d8b57611d8b612254565b604051908082528060200260200182016040528015611dc457816020015b611db1611ee0565b815260200190600190039081611da95790505b50905060005b600084815260026020526040902060050154811015611e5b5760008481526002602052604090206005018054611e2b91869184908110611e0c57611e0c612899565b60009182526020909120600490910201546001600160a01b0316611a18565b828281518110611e3d57611e3d612899565b60200260200101819052508080611e53906128e5565b915050611dca565b5092915050565b600080805b6000848152600260205260409020600401548110156113ac576000848152600260205260409020600401805482908110611ea357611ea3612899565b6000918252602090912001546001600160a01b0386811691161415611ece57506001915061048e9050565b611ed960018261276e565b9050611e67565b604051806080016040528060006001600160a01b031681526020016060815260200160608152602001606081525090565b828054611f1d90612786565b90600052602060002090601f016020900481019282611f3f5760008555611f85565b82601f10611f5857805160ff1916838001178555611f85565b82800160010185558215611f85579182015b82811115611f85578251825591602001919060010190611f6a565b50611f91929150612089565b5090565b828054828255906000526020600020908101928215611f855791602002820182811115611f85578251825591602001919060010190611f6a565b828054611fdb90612786565b90600052602060002090601f016020900481019282611ffd5760008555611f85565b82601f1061200e5780548555611f85565b82800160010185558215611f8557600052602060002091601f016020900482015b82811115611f8557825482559160010191906001019061202f565b828054828255906000526020600020908101928215611f8557600052602060002091820182811115611f8557825482559160010191906001019061202f565b5b80821115611f91576000815560010161208a565b80356001600160a01b03811681146120b557600080fd5b919050565b600080604083850312156120cd57600080fd5b823591506120dd6020840161209e565b90509250929050565b6000815180845260005b8181101561210c576020818501810151868301820152016120f0565b8181111561211e576000602083870101525b50601f01601f19169290920160200192915050565b600081518084526020808501945080840160005b8381101561216357815187529582019590820190600101612147565b509495945050505050565b60018060a01b038151168252600060208201516080602085015261219560808501826120e6565b9050604083015184820360408601526121ae82826120e6565b915050606083015184820360608601526121c88282612133565b95945050505050565b60208152600061048b602083018461216e565b6000602082840312156121f657600080fd5b5035919050565b6000806040838503121561221057600080fd5b50508035926020909101359150565b6000806040838503121561223257600080fd5b823591506020830135801515811461224957600080fd5b809150509250929050565b634e487b7160e01b600052604160045260246000fd5b604051601f8201601f1916810167ffffffffffffffff8111828210171561229357612293612254565b604052919050565b600082601f8301126122ac57600080fd5b813567ffffffffffffffff8111156122c6576122c6612254565b6122d9601f8201601f191660200161226a565b8181528460208386010111156122ee57600080fd5b816020850160208301376000918101602001919091529392505050565b6000806040838503121561231e57600080fd5b823567ffffffffffffffff8082111561233657600080fd5b6123428683870161229b565b935060209150818501358181111561235957600080fd5b8501601f8101871361236a57600080fd5b80358281111561237c5761237c612254565b8060051b925061238d84840161226a565b81815292820184019284810190898511156123a757600080fd5b928501925b848410156123c5578335825292850192908501906123ac565b8096505050505050509250929050565b600082825180855260208086019550808260051b84010181860160005b8481101561242057601f1986840301895261240e8383516120e6565b988401989250908301906001016123f2565b5090979650505050505050565b600082825180855260208086019550808260051b84010181860160005b8481101561242057601f19868403018952612466838351612133565b9884019892509083019060010161244a565b60a08152600061248b60a0830188612133565b60208382038185015261249e82896123d5565b8481036040860152875180825282890193509082019060005b818110156124d55784511515835293830193918301916001016124b7565b505084810360608601526124e9818861242d565b92505083820360808501528185518084528284019150828160051b85010183880160005b8381101561256a57868303601f1901855281518051808552908701908785019060005b818110156125555783516001600160a01b031683529289019291890191600101612530565b5050958701959350509085019060010161250d565b50909c9b505050505050505050505050565b6000806040838503121561258f57600080fd5b823567ffffffffffffffff808211156125a757600080fd5b6125b38683870161229b565b935060208501359150808211156125c957600080fd5b506125d68582860161229b565b9150509250929050565b60208152600061048b6020830184612133565b60006020828403121561260557600080fd5b61048b8261209e565b60208152600061048b602083018461242d565b60208152600061048b60208301846123d5565b6000602080830181845280855180835260408601915060408160051b870101925083870160005b8281101561268957603f1988860301845261267785835161216e565b9450928501929085019060010161265b565b5092979650505050505050565b634e487b7160e01b600052602160045260246000fd5b60208082526069908201527f52657665727465642064756520746f20697341646d696e206d6f64696669657260408201527f2e506f737369626c65206361757365203a206d73672e73656e646572206e6f7460608201527f2061646d696e206f72206167656e6379206973206e6f7420617070726f76656460808201526820627920554944414960b81b60a082015260c00190565b634e487b7160e01b600052601160045260246000fd5b60008282101561276957612769612741565b500390565b6000821982111561278157612781612741565b500190565b600181811c9082168061279a57607f821691505b60208210811415610fe057634e487b7160e01b600052602260045260246000fd5b8054600090600181811c90808316806127d557607f831692505b60208084108214156127f757634e487b7160e01b600052602260045260246000fd5b8388526020880182801561281257600181146128235761284e565b60ff1987168252828201975061284e565b60008981526020902060005b878110156128485781548482015290860190840161282f565b83019850505b5050505050505092915050565b60608152600061286e60608301866127bb565b6001600160a01b0385166020840152828103604084015261288f8185612133565b9695505050505050565b634e487b7160e01b600052603260045260246000fd5b6001600160a01b03841681526060602082018190526000906128d3908301856127bb565b828103604084015261288f81856127bb565b60006000198214156128f9576128f9612741565b506001019056fea26469706673582212209e31da5e8c2376407a1b49fa8c5f8b8ff1f548497f3cdfe6b38fe3eec9d1e85d64736f6c63430008090033",
  "linkReferences": {},
  "deployedLinkReferences": {}
}